:020000040000fa
:080000000002040000000000f2
:020000040000fa
:04000800860300006b
:020000040000fa
:04000c0004030000e9
:020000040000fa
:0400100046030000a3
:020000040000fa
:0400140024030000c1
:020000040000fa
:04001800660300007b
:020000040000fa
:04001c008603000057
:020000040000fa
:040020008603000053
:020000040000fa
:04002400860300004f
:020000040000fa
:04002800860300004b
:020000040000fa
:04002c008603000047
:020000040000fa
:040030008603000043
:020000040000fa
:04003400d4020000f2
:020000040000fa
:04003800860300003b
:020000040000fa
:04003c008603000037
:020000040000fa
:040040008603000033
:020000040000fa
:04004400860300002f
:020000040000fa
:04004800860300002b
:020000040000fa
:04004c008603000027
:020000040000fa
:040050008603000023
:020000040000fa
:04005400860300001f
:020000040000fa
:04005800860300001b
:020000040000fa
:04005c008603000017
:020000040000fa
:040060008603000013
:020000040000fa
:04006400860300000f
:020000040000fa
:04006800860300000b
:020000040000fa
:04006c008603000007
:020000040000fa
:040070008603000003
:020000040000fa
:0400740086030000ff
:020000040000fa
:0400780086030000fb
:020000040000fa
:04007c0086030000f7
:020000040000fa
:0400800086030000f3
:020000040000fa
:0400840086030000ef
:020000040000fa
:0400880086030000eb
:020000040000fa
:04008c0086030000e7
:020000040000fa
:0400900086030000e3
:020000040000fa
:0400940086030000df
:020000040000fa
:0400980086030000db
:020000040000fa
:04009c0086030000d7
:020000040000fa
:0400a00086030000d3
:020000040000fa
:0400a40086030000cf
:020000040000fa
:0400a80086030000cb
:020000040000fa
:0400ac0086030000c7
:020000040000fa
:0400b00086030000c3
:020000040000fa
:0400b40086030000bf
:020000040000fa
:0400b80086030000bb
:020000040000fa
:0400bc0086030000b7
:020000040000fa
:0400c00086030000b3
:020000040000fa
:0400c40086030000af
:020000040000fa
:0400c80086030000ab
:020000040000fa
:0400cc0086030000a7
:020000040000fa
:0400d00086030000a3
:020000040000fa
:0400d400860300009f
:020000040000fa
:0400d800860300009b
:020000040000fa
:0400dc008603000097
:020000040000fa
:0400e0008603000093
:020000040000fa
:0400e400860300008f
:020000040000fa
:0400e800860300008b
:020000040000fa
:0400ec008603000087
:020000040000fa
:0400f0008603000083
:020000040000fa
:0400f400860300007f
:020000040000fa
:0400f800860300007b
:020000040000fa
:0400fc008603000077
:020000040000fa
:040100008603000072
:020000040000fa
:04010400860300006e
:020000040000fa
:04010800860300006a
:020000040000fa
:04010c008603000066
:020000040000fa
:040110008603000062
:020000040000fa
:04011400860300005e
:020000040000fa
:04011800860300005a
:020000040000fa
:04011c008603000056
:020000040000fa
:040120008603000052
:020000040000fa
:04012400860300004e
:020000040000fa
:04012800860300004a
:020000040000fa
:04012c008603000046
:020000040000fa
:040130008603000042
:020000040000fa
:04013400860300003e
:020000040000fa
:040208008603000069
:020000040000fa
:04020c0004030000e7
:020000040000fa
:0402100046030000a1
:020000040000fa
:0402140024030000bf
:020000040000fa
:040218006603000079
:020000040000fa
:04021c008603000055
:020000040000fa
:040220008603000051
:020000040000fa
:04022400860300004d
:020000040000fa
:040228008603000049
:020000040000fa
:04022c008603000045
:020000040000fa
:040230008603000041
:020000040000fa
:04023400d4020000f0
:020000040000fa
:040238008603000039
:020000040000fa
:04023c008603000035
:020000040000fa
:040240008603000031
:020000040000fa
:04024400860300002d
:020000040000fa
:040248008603000029
:020000040000fa
:04024c008603000025
:020000040000fa
:040250008603000021
:020000040000fa
:04025400860300001d
:020000040000fa
:040258008603000019
:020000040000fa
:04025c008603000015
:020000040000fa
:040260008603000011
:020000040000fa
:04026400860300000d
:020000040000fa
:040268008603000009
:020000040000fa
:04026c008603000005
:020000040000fa
:040270008603000001
:020000040000fa
:0402740086030000fd
:020000040000fa
:0402780086030000f9
:020000040000fa
:04027c0086030000f5
:020000040000fa
:0402800086030000f1
:020000040000fa
:0402840086030000ed
:020000040000fa
:0402880086030000e9
:020000040000fa
:04028c0086030000e5
:020000040000fa
:0402900086030000e1
:020000040000fa
:0402940086030000dd
:020000040000fa
:0402980086030000d9
:020000040000fa
:04029c0086030000d5
:020000040000fa
:0402a00086030000d1
:020000040000fa
:0402a40086030000cd
:020000040000fa
:0402a80086030000c9
:020000040000fa
:0402ac0086030000c5
:020000040000fa
:0402b00086030000c1
:020000040000fa
:0402b40086030000bd
:020000040000fa
:0402b80086030000b9
:020000040000fa
:0402bc0086030000b5
:020000040000fa
:0402c00086030000b1
:020000040000fa
:0402c40086030000ad
:020000040000fa
:0402c80086030000a9
:020000040000fa
:0402cc0086030000a5
:020000040000fa
:0402d00086030000a1
:020000040000fa
:0402d400860300009d
:020000040000fa
:0402d8008603000099
:020000040000fa
:0402dc008603000095
:020000040000fa
:0402e0008603000091
:020000040000fa
:0402e400860300008d
:020000040000fa
:0402e8008603000089
:020000040000fa
:0402ec008603000085
:020000040000fa
:0402f0008603000081
:020000040000fa
:0402f400860300007d
:020000040000fa
:0402f8008603000079
:020000040000fa
:0402fc008603000075
:020000040000fa
:040300008603000070
:020000040000fa
:04030400860300006c
:020000040000fa
:040308008603000068
:020000040000fa
:04030c008603000064
:020000040000fa
:040310008603000060
:020000040000fa
:04031400860300005c
:020000040000fa
:040318008603000058
:020000040000fa
:04031c008603000054
:020000040000fa
:040320008603000050
:020000040000fa
:04032400860300004c
:020000040000fa
:040328008603000048
:020000040000fa
:04032c008603000044
:020000040000fa
:040330008603000040
:020000040000fa
:04033400860300003c
:020000040000fa
:100400002fbf21000e7f22000e0188000000000097
:10041000000020000000e000020032000001200087
:100420002002880014000700ba0007000000e00066
:1004300003003a0060b826000100200002003700e7
:100440000000200001002000810f70000100320038
:1004500014000700000020000000e000020032004d
:100460000000020000000000d86c02000000000044
:100470000040da000000fe004440a900a007200070
:100480000000e0000300320000002000a00188000e
:100490004440a800000006008a1f78008b1f7800e7
:1004a0000000060091018800800478000000eb0045
:1004b0001a003700e284440032a0b4009905ba0063
:1004c000e284440032a0b4009906ba00e2844400f9
:1004d00032a0b4000006eb00476fde00fd07b2005b
:1004e000636ce10003003a00ebff07000000eb0043
:1004f0000a003700606ce10004003a00005deb0088
:100500008b05e900fdff3e00040037006168e10053
:10051000010032000086eb000b00070019c7ba008b
:100520001905ba000e04e00003003a000a00e000da
:10053000e0ff3a0000000600fe07b2009e018800be
:100540008a047800f5ff3700395dba008b05e900b1
:100550000c003200295dba008b05e900080032006a
:100560000c00e00003003a00e284440032a0b40032
:10057000f5ff370019ddba008b05e900faff3a00f4
:100580008904e800e184440032a0b40000000600c1
:10059000382f0400000000001c5e04000000000072
:1005a000ca6c0400000000003600f800809fbe0006
:1005b000829fbe00849fbe00869fbe003400f8006c
:1005c00000002000a00188000000fa008460a9005b
:1005d000c31207000000e00003003200066c0200b6
:1005e00000000000000000000080fa003400f90064
:1005f0004f03be004f02be004f01be004f00be00c1
:100600003600f900004006003600f800809fbe006a
:10061000829fbe00849fbe00869fbe000000fa003d
:100620008020a9000000eb00ec3407000080fa00f5
:100630004f03be004f02be004f01be004f00be0080
:100640003600f900004006003600f800809fbe002a
:10065000829fbe00849fbe00869fbe000000fa00fd
:10066000e53407008040a90010002000db340700bb
:100670000080fa004f03be004f02be004f01be00d3
:100680004f00be003600f900004006003600f800ba
:10069000809fbe00829fbe00849fbe00869fbe00da
:1006a0000000fa008060a90020002000cb34070081
:1006b0000080fa004f03be004f02be004f01be0093
:1006c0004f00be003600f900004006003600f8007a
:1006d000809fbe00829fbe00849fbe00869fbe009a
:1006e0000000fa008080a90030002000bb34070021
:1006f0000080fa004f03be004f02be004f01be0053
:100700004f00be003600f900004006000040da004d
:100710000000fe0000000500f4ff2f000401370078
:100720006011b8001d01370003836800070028002e
:1007300007036300470ade000480a100c71ade0039
:100740000580a100f70f20000720e10042003200e1
:100750000728e10040003200889fbe008a9fbe004b
:100760008c1f7800f107b200f307b2000400e0002c
:10077000640032000170a0000500e0006800320053
:100780000370a00085054200eb07b1000204b80029
:100790000302b8008484440060854a00020ab8005d
:1007a000848444000a854a00030ab8000405450011
:1007b000040033000804d0008984d2000a85d200e6
:1007c0008b05e9006158e1003d0035000210200072
:1007d000090161000308200089816100f7072000fa
:1007e0008783640008867300c84cde00c853dd00b0
:1007f000878474004855de000300e00006003200e4
:1008000082037600040032008904e80060054d0090
:100810000a88a3000c003a00f70f20000758e100f7
:1008200044003d000a70a100c75ddd000a85750027
:100830008a007300090078004f0678004f05be005b
:100840004f04be00000006000a05d1008984d300d1
:100850008b05e800f0ff3700881f78000604780059
:1008600090000700070278000001fd008101fd00f3
:100870008c00070087027800850372000778a300c8
:10088000050032000001fd008101fd009f0007000e
:100890004f04780000000600850372000748a3009b
:1008a00003003200f0ff2f00f1ff2700f8ff3700b0
:1008b0000000200001f8270088807000f4ff370056
:1008c000880178004848dd00808171004848de00da
:1008d000c850dd0001007000c850de00060478003a
:1008e0000b0178001600070088807000d2ff3700e7
:1008f0000500e00005003200170020003a00070064
:100900009dff370081037000f9ff3a0086007800f0
:100910004f0678004f05be004f04be0000000500e2
:1009200083037100f9ff3200270020002e0007002a
:1009300094ff370001f8270086807000f4ff37002d
:100940000100e00026003200610111007810e10092
:1009500023003c006022b8007010e1000400350064
:1009600080027800010078008000eb0070015100e7
:100970000200e0000900340070031100062add00c7
:10098000822ade008603dd00878272000200de001c
:10099000860bdd00070070008208de008481710094
:1009a000f4ff2700048262008481710004002800a3
:1009b000848262006102600005f0a600000006006b
:1009c00004827100070032000000e800e080480067
:1009d000000006000002be006000b800efff370014
:1009e0006000b80000000600889fbe000004eb0015
:1009f0006138e10016003a000100e00008003a000a
:100a0000c800de004800dd00880020000100e00092
:100a100003003a00c800de004800dd00680444001e
:100a20008184cf00e9845400060034008908dd0089
:100a3000f08314008703de00878070000900dd006a
:100a400009044400610214004f04be0000000600c7
:100a50000300e00008003a00c811de004811dd0084
:100a6000880020000300e00003003a00c811de0007
:100a70004811dd00680444008384cf00e9845400f9
:100a8000060034008919dd00f08314008713de00ae
:100a9000878171000911dd0009044400e10214009e
:100aa000e9ff37002700200001f0a7001700200011
:100ab000470bde00f60fb200040032000643e800e8
:100ac0000a0032004702b30000000600010378006c
:100ad000f607b2000603700002003a000703b300f5
:100ae000000006008702b300000006000103780042
:100af000f607b20006037000020032000770a00083
:100b0000000006000760a000000006000478a300b3
:100b1000040032000578a300030032000168a3003e
:100b200001003a000200be000160a00000000600c3
:100b3000889fbe008a9fbe00841f78006c0007005b
:100b40004f00780011003300f0ff2f00838f6c00fe
:100b500006003b00040565000a00a70008003700f6
:100b600009f0a6001000200008003700820f540092
:100b7000838f5c00030039001000200001003e005c
:100b80000000200009f0a7000000ea004f05be00a9
:100b90004f04be000000e00000000600889fbe0079
:100ba0008a9fbe00008270000402710004827100fe
:100bb000260032000004be000200be006011b80032
:100bc0006b092000950220000182cf000a00390045
:100bd0000541b1000082cf00070039000541b10096
:100be0000982cf00040039000541b1000882cf001e
:100bf000010039000541b1000542520012003200e7
:100c00000a003b0082817100610164008100d10013
:100c10000080d3008984d3000884d3008b05e800ca
:100c20000442e800f7ff3a000700370008044400d8
:100c300089844c0000004800818048008b05e90051
:100c40000442e900f9ff3a00030007004f05be0027
:100c50004f04be00000006008100200061805500a6
:100c60000b003d000b00200061fe2f000100e100a1
:100c70001d00340082817100610164008904d1008b
:100c80000884d3000000e800faff3a007100200059
:100c9000610064000300700002006000090032007f
:100ca00061044400e0844c000988a500050032007e
:100cb0008b05e8006808e10002003a008904d100d1
:100cc0000884d300f20f20000258e10005003d0027
:100cd000c75ddd00f907b200898075000800780063
:100ce000000006000bf827008b00780000000500cc
:100cf0000004be00060007000003be000405be009d
:100d00000200be0002000700844f750000000600cc
:100d1000c70ade00f107b200f50fb200080032008a
:100d2000e1cf4200020032000170a0002400050063
:100d3000810f700001003200040805004400050026
:100d4000810f700002003a00140005008502e900de
:100d50000000400081c04800fcff3b000170a00083
:100d6000240005000000fa0068815700cfb8970002
:100d7000520307000080fa0000000600740007001c
:100d8000520337008001780002003700b159780023
:100d90000201e9000200e000fcff3a00000006004a
:100da000889fbe008a9fbe00800478000200e00099
:100db0005b00320001407800814c78008281440061
:100dc000f1f99f00e20f5100550036009144980060
:100dd000a1449800e1f99f00d1f99f00e60f51006e
:100de0004f003600b1449800c1f99f00e80f510050
:100df0004b0036000905ea00630565000a844400db
:100e00000a055100c1ff2f00010565000080fb00ad
:100e10008000eb001210200013102000bf06070016
:100e2000008cbe000a01440060b99f0071b99f00a8
:100e3000e80f55003a00360020049800310498006d
:100e4000400498005104980020b99f0031b99f00d8
:100e500040b99f0051b99f00f80f5500300036008f
:100e60006004980071049800000c9800110c980020
:100e7000200c9800310c9800400c9800510c980000
:100e800020b19f0031b19f0040b19f0051b19f0040
:100e900060b19f0071b19f0000b99f0011b99f0020
:100ea0006401640078014100020444000205550019
:100eb0006011b8000203be000002be000403be00c1
:100ec0006022b8000000720081807200020173008d
:100ed0008381730010003700009cbe000294be00a6
:100ee000400498005104980062049800730498002c
:100ef000000c9800110c9800220c9800330c9800fc
:100f0000400c9800510c9800620c9800730c9800eb
:100f10000a02b1000802b000ff0f5500eeff3e00cc
:100f2000090078004f05be004f04be000000060017
:100f3000881f780000047800080078002405070066
:100f4000080078004f04780000000600000006004a
:100f50004200fa00889fbe008a9fbe008c9fbe00a0
:100f600020079800110f9800034f98001100780097
:100f7000400f980091009000610f98009e0990002a
:100f8000a3019000330f98001e0a900044029000c5
:100f9000140798009e0a9000b5029000052798005b
:100fa0003204be002205be006022b8006033b800e3
:100fb0000800be000a01be00030607000000e000b2
:100fc00003003d000bf0a200d0c2b30004003700c4
:100fd0004e0b90000628a30009003200b0c2b300f7
:100fe0008e239000804b78003e0890000000e900be
:100ff000700f980011002000510f9800100037006a
:101000004e0990000238a3000900320000c2b3006c
:101010008e219000804978003e0a90000402e90089
:10102000740f980015002000550f98000400370039
:101030003e0b9000760f98008003eb00570f98004e
:101040000800be000a01be00c0ff0700f4ff2f0029
:10105000f5ff2f00f6ff2f00f7ff270004026000c6
:101060008582600006036100878361006000b8002c
:101070000200200003ff27000020e10001a8e1009a
:1010800002b0e10003b8e10011003a000e48900000
:101090008000fb001104b1000e219000de099000d9
:1010a00003004100f98f500002003e0001be210004
:1010b0000100370041be21009dff070040be210016
:1010c000e30407005e0a90000401400015003700a9
:1010d0000020e10001a8e10002b0e10003b8e10056
:1010e000130036008e4a90008500fb001104b10009
:1010f0000e239000de0b900007004300f98f500094
:1011000002003e0081be210001003700c1be210067
:1011100087ff0700c0be2100cd040700de08900055
:10112000010140004e0a9000be09900050023700b5
:101130006022b8006033b8000800be000a01be009b
:10114000a10507000000e0006a0032006022b8003c
:101150000600200007ff2300441798005517980049
:1011600066179800771798008006eb000800be000d
:101170000a01be00001f9800111f9800221f98004e
:10118000331f98000e269000070037008d06e800f8
:101190000802be000a03be004417980055179800c5
:1011a00066179800771798006022b80006002000a4
:1011b000470224004e109000de1090006e11900047
:1011c000fe119000db0607000004be000205be0011
:1011d0000002be000203be000e1890009e18900090
:1011e0002e199000be199000770507000000e0005e
:1011f000e6ff3d000c2798000006eb004e1490001f
:10120000de1490006e159000fe159000250037004a
:1012100040ed2f00808f560019003d000c00e000cb
:1012200016003a006022b8000600200007352400ae
:101230000e1890009e1890002e199000be19900074
:10124000bc0607000002be000203be00041f980097
:10125000151f9800261f9800371f98006022b800bd
:1012600006002000073524000800be000a01be0069
:10127000b00607000004be000205be001c002000ee
:101280006022b80006002000470224000800be00cb
:101290000a01be00f80507000004be000205be00fa
:1012a0008d06e9000802be000a03be000e18900079
:1012b0009e1890002e199000be199000420507005c
:1012c0000000e000d2ff35000800be000a01be00a9
:1012d00040179800511798006217980073179800ec
:1012e0000e1c90009e1c90002e1d9000be1d9000b4
:1012f000080037006022b8000600200007ff230026
:1013000044179800551798006617980077179800ab
:101310008006eb008e4a90000500fb006404070085
:10132000104f98006e0b9000600020000600e00057
:10133000010035006e08900071c6b3009e4b90000e
:1013400081cf53000a003a00ee0890000100e0004f
:10135000cf013200cf0137008d0f5000d3013c0088
:10136000001f980052c6b300425f98001e0037006d
:101370009e499000435f98000200370064c6b300a6
:10138000445f98000000e800001f980060c6b300aa
:10139000ce5a900080cf520013003a000d00e000ba
:1013a00008003d006000b8000200200003ff230099
:1013b000401798005117980062179800731798000b
:1013c0008006eb0061c6b300415f980070c6b300b1
:1013d0001e499000804f5100030032008e1990008a
:1013e0008d814100031f98004e129000de12900084
:1013f0006e139000fe139000441f9800551f980034
:10140000661f9800771f98000800be000a01be0002
:1014100000179800111798002217980033179800aa
:101420000006eb000802be000a03be005407980045
:101430006507980076079800070f9800310037007d
:101440004e1a9000de1a90006e1b9000fe1b90005a
:101450000e1090009e1090002e119000be11900072
:1014600085050700dd0707000004be000205be0079
:10147000fe04070080027800250f98004e1a9000a5
:10148000de1a90006e1b9000fe1b90000800be004c
:101490000a01be00270607000e1290009e1290005f
:1014a0002e139000be139000220507000002be001c
:1014b0000203be0007f0a200041798001517980059
:1014c00026179800371798006022b8000600200001
:1014d000470224004e189000de1890006e1990000c
:1014e000fe199000640507000002be000203be0062
:1014f000441f9800551f9800661f9800771f98009a
:101500000c06e8008e1a9000850f5600ccff3500bf
:101510005e049000ee0490007e0590008e0d900019
:101520006022b80006002000470124004e189000f9
:10153000de1890006e199000fe199000fd0507005e
:101540000002be000203be00441f9800551f980011
:10155000661f9800771f98000e1090009e10900054
:101560002e119000be119000970407000000e000cb
:101570000f0035004e1a9000de1a90006e1b90008e
:10158000fe1b90000e1090009e1090002e119000f7
:10159000be1190008c0407000000e00011003a002a
:1015a000ae0a90000508a300080032000d003700c5
:1015b0006000b8006011b800401f9800511f9800eb
:1015c000621f9800731f9800060037006022b80061
:1015d0006033b800441f9800551f9800661f98009c
:1015e000771f98004e1a9000de1a90006e1b900034
:1015f000fe1b90000800be000a01be00d3040700d5
:101600000002be000203be000417980015179800e0
:1016100026179800371798006022b80006002000af
:10162000470224004e109000de1090006e119000d2
:10163000fe119000bf0507000004be000205be00b9
:101640000002be000203be000e1090009e1090002b
:101650002e119000be119000600407000000e00011
:10166000090035008d06e80060c6b300ce5a900030
:1016700080cf520008003a000e1b90000603e800dd
:10168000061f9800110037004e149000de149000e1
:101690006e159000fe15900050c6b3004e59900094
:1016a000804f510009003a000802be000a03be0044
:1016b000441f9800551f9800661f9800771f9800d8
:1016c0008002eb0045179800070037000800be00b5
:1016d0000a01be00401f9800511f9800621f980029
:1016e000731f98004d1798005e0e90000001eb00ec
:1016f000220f980032079800520798000d0f7800cb
:101700006a0037004e1a9000de1a90006e1b90009f
:10171000fe1b90000e1090009e1090002e11900065
:10172000be119000d40407002c0707000004be007f
:101730000205be004d040700e90f5000010034000f
:1017400090002000ce0990000348a3000c003a004e
:101750000000e0000a003a0071c6b3001e4a900083
:10176000814f520006003a00ce1290000500e000c2
:1017700003003d002e0b90008606e8002300370092
:10178000be0390000700e0000c003a00ce1090006d
:101790000100e00009003d00e1c2b3000e2190000d
:1017a00001717e000c06e800fe0990008301e9004b
:1017b000730f980014002000340798008e229000c8
:1017c0000c814200ae0e90008501780003003700c6
:1017d00001c3b300015978008d06e9000d00e00057
:1017e000fbff3a00032798002e0b900006064600e8
:1017f0000043b00080717e000c06e8000680ea001d
:10180000fe0b900080834300770f98004e1a9000e3
:10181000de1a90006e1b9000fe1b90000800be00b8
:101820000a01be00430507000e1290009e129000b0
:101830002e139000be1390003e0407000002be006d
:101840000203be0007f0a2000417980015179800c5
:1018500026179800371798006022b800060020006d
:10186000470224004e189000de1890006e19900078
:10187000fe199000800407000002be000203be00b3
:10188000441f9800551f9800661f9800771f980006
:10189000ce1290008502e900451798005e03900083
:1018a0000603e800560798002d0f9800de0390000d
:1018b0000e189000808f530005003d009e08900098
:1018c0004100900065005000800f56008dff3900e8
:1018d0009e0678003e0190000200e00007003a00fa
:1018e000ce0990000348a30004003200e0c2b30018
:1018f0000e22900000727e000c06e8008e229000fe
:101900000c8042000048eb0051c6b3004e5b9000d3
:10191000814f530038003a009e0390008700e90091
:101920000041eb0082f278008001eb000d00e00046
:1019300002003d008d06ea00130020002200200076
:1019400001037800fe0a90008e23900000047800c6
:101950000a00370001037800a400200011000900ec
:101960008406d80001027800800678000443b000a5
:1019700084737b000201e9008502e9008600e9002a
:101980000d00e000f3ff3a000200e000f1ff3c0030
:10199000750f98000727980008007800018243001f
:1019a000b2c2b3000300e00001003200d2c2b300b3
:1019b000024a78000101e9008e21900082804100f6
:1019c0008e4a90000502fb001404b10053c6b30018
:1019d000f90f520001003e0053c4b3008348780061
:1019e0007e0b90000683e900760f9800820f560068
:1019f00001003d004efd0700ce0b900063806300a8
:101a0000e20f500015003a007e0890000000e00050
:101a1000120034000e2090008d0207008e219000ed
:101a2000040037007e09900082804100e370780056
:101a30000000e900de0a9000850f5000f9ff3d002c
:101a400003279800058041007e09900001032000d3
:101a5000d3fc07000003eb00360f98000e20900027
:101a60007b0207004e0a9000be099000000178003a
:101a70008e2090002e009000460007004f06be000a
:101a80004f05be004f04be000080fa0000000600b3
:101a900010002000e48f46002ffe3d00001f98003c
:101aa00057c6b300475f98004ffe37000d00e000b7
:101ab00032fe3500001f980042fe37008201780098
:101ac00001017800f1ff270080023700881f7800ad
:101ad0000004780000082000808f500017003500b7
:101ae00010082000808f50000b00340030082000c8
:101af000808f500011003a009200780068805000fa
:101b0000000978003002be002003be00049cbe0025
:101b10000694be00070037009202780064805200ed
:101b2000000978001000be0031030700009cbe00d1
:101b30000294be0010002000010037000000eb00fe
:101b40004f04780000000600889fbe000004780063
:101b50004800900082047800808f54000100360015
:101b600080047800090178005800900085fc070087
:101b7000580090000900400050049800c8009000f0
:101b800089845000490498000048eb004f04be00cf
:101b900000000600f2874700889fbe008a9fbe00b3
:101ba0008c9fbe008e1f78008004780001057800ad
:101bb00002047800830578006107620002003a00a1
:101bc0008b0f540008003900080178008a00780063
:101bd00009007800dcff07008b0f54000200390079
:101be000880578001e003700088655000c01780033
:101bf000f00f560001003600020120000102200013
:101c00007e80570066fc07008c06780005003700d0
:101c100002012000fe80570009007800caff07007b
:101c2000f0865600ef8f5600f9ff3e004461de005b
:101c300000ff2f000091b90002014600fe8057000e
:101c400009007800c0ff07000e00e00004003a0021
:101c5000080178008a00780009007800baff0700c0
:101c60000b0078004f0778004f06be004f05be00fe
:101c70004f04be002f01b100000006000000050067
:101c80000000050000000500000178000040eb00a6
:101c90008080fb0081804000a3bc210063c27800eb
:101ca0000404e00003003a00b0bc210060c07800ea
:101cb0000000060092017800934f520004003a00a1
:101cc000b0bc210060c078000309e80001003700c3
:101cd0000040e800ea4f5000edff3600000006002b
:101ce000f6874700889fbe008a9fbe008c9fbe007b
:101cf0008e1f7800000578000104780083057800c5
:101d0000040678000000eb00c0b79f008080eb0065
:101d1000d1b79f00e0b79f00f2b79f0000082000f6
:101d200080bf9f0098007800010078008004eb00dd
:101d3000010037008904e800304178000204e00027
:101d40000300320053c2b300834f5100f9ff3a0041
:101d50000900e00004003200090178000a00780060
:101d600079ff0700188c44001807780050c2b300b0
:101d70009e4f10003f013a000e07e8000e0c78005d
:101d800010003700cfb097000100a0000b00370013
:101d9000cfb097000110a00008003700cfb0970027
:101da0000120a00005003700cfb097000130a0004f
:101db00002003700cfb097000140a000c1b79f00dc
:101dc000000ce8001800780090407800b2c2b30020
:101dd00082cf5000f1ff320007003c0002c2b30086
:101de00082cf5000f0ff320032c2b30082cf5000e9
:101df00007003a00efff3700d2c2b30082cf500095
:101e0000e0ff320002c3b30082cf5000e0ff320097
:101e1000a2c2b30082cf50000d003a00000ce800cf
:101e20001c80e900000e780010007800e0b79f00e9
:101e30000000e0000f003d00cfb097000100a200bd
:101e4000c1b79f000000ea00e0b79f00090037001b
:101e500039010700e0b79f0001003700000ce800df
:101e6000180078009000fb000103b100e98f5000da
:101e7000faff36004fb097000008a30002003200be
:101e80000010a100c0b79f0018007800e1c2b300a5
:101e900090cf100016003a008000eb00d1b79f00f1
:101ea0000000e800000c7800a1c2b30090cf100041
:101eb00006003a00000ce8001c80e900000e7800e3
:101ec00010007800d0b79f00090037001a01070002
:101ed000d0b79f0001003700000ce8001800780020
:101ee0009000fb000103b100e98f5000faff3600bb
:101ef0000800780064ff070080467800180078002a
:101f00001000fb006a01070091062000810f5000bd
:101f10003800320012003c0041062000810f5000c2
:101f2000340032000a003c0011062000810f5000ee
:101f30002000320031062000810f5000a000320046
:101f400051022000810f5000bc003a00b40037005d
:101f500071062000810f5000b8003c008800370057
:101f600001072000810f50005c00320007003c0098
:101f7000e1062000810f50007a003200f1062000b7
:101f8000810f5000ad003a003900370051072000a2
:101f9000810f50002700320081072000810f500080
:101fa0004200320031072000810f5000a3003a00a8
:101fb0008f0037008d80fb000c01780000fe2f00a1
:101fc0000f004000c1fe07000000e000a800320042
:101fd00018007800000ce8009041780002fe2f0005
:101fe0000f014100f88057000a00780024ff070025
:101ff0000e0037008d80fb008c017800120020005d
:1020000000fe2f000f004000550107000000e00017
:1020100097003200180ce80002fe2f000f0141006b
:10202000f88057000a00780014ff070080844400fd
:10203000900037008d80fb008c0178000001eb00e0
:1020400000fe2f000f004000450107000000e000e7
:1020500087003200180ce80002fe2f000f0141003b
:10206000f88057000a00780004ff0700efff3700f0
:102070008d80fb008c0178000001eb0000fe2f003a
:102080000f004000360107000000e0007800320039
:10209000180ce80002fe2f000f014100f8805700e5
:1020a0000a007800f5fe0700e0ff37008d80fb0096
:1020b0008c0178000001eb0000fe2f000f004000b3
:1020c000270107000000e0006900320018007800d6
:1020d000000ce800904178001c0037008c0178006b
:1020e0000001eb00010f200000fe2f000f00400058
:1020f0001b0107000000e0005d003200180ce80042
:102100000fb097009fb097002fb19700bfb1970015
:10211000e00f5000e08f5800e00f5900e08f5900a9
:1021200009003a00cfb597006fb4970020bc21009a
:10213000c70007000b0278008801780000017800d2
:1021400021bc21004700370083c7b30002fe2f00e7
:102150000f014100f88057000a007800c8fe070010
:10216000b2ff37000b8144008d80fb008c017800aa
:1021700000fe2f000f0040004d0107003c0037001b
:102180008d80fb000c01780000fe2f000f00400046
:102190004efe07000000e000350032001800780015
:1021a000000ce8009041780002fe2f000f01410072
:1021b000f88057000a00780065fb07009bff370096
:1021c00000c8b30080cf560029003a00180ce80080
:1021d0001c80e900000e780010407800e0df9f00ce
:1021e00013002000e2fd2f000f014100080037001e
:1021f00000c8b30080cf56001d003a00180ce8005c
:102200001c80e900000e78008001eb0010017800ce
:10221000f88057000a0078009afe070083ff370015
:1022200000c8b30080cf560011003a00180ce80037
:102230004fb29700efb19700080037000e0c7800fe
:102240000000eb00c0b79f00e0b79f000080eb00ec
:10225000d0b79f000002eb0084017800120020003c
:1022600081bc21000a0078004afe07006fff37009a
:10227000180ce800090078004f0778004f06be00f0
:102280004f05be004f04be006f01b1000000060004
:102290008200fa00889fbe008a1f7800000578003f
:1022a00082047800c13f9f000004eb00100037005b
:1022b0000902780088017800a2f72f000f01410081
:1022c00081f72f008f8040000a00780084fe07000d
:1022d00008004000880f500004003d00b0042000ba
:1022e00080df88000084eb000400370000047800e1
:1022f0004f3897001004e000edff3a000800780026
:102300004f0578004f04be000080fa000000060070
:10231000800078001000200002022000828f500010
:1023200004003200e9805000e48f500001003600c4
:102330000000eb0000000600889fbe008a1f7800a6
:10234000000578000a047800984478000805e80041
:102350000900fb00eeff07000000e000f9ff3a0073
:10236000b0c2b30080cf540005003200d0c2b30029
:102370008000eb0080cf540005003a0002003700d7
:102380008000eb0001003700110020000804e80085
:102390000000eb00030037006a02b900020052009f
:1023a0000003b0003801fb0003fd2f0082814100d3
:1023b000e98f5100f8ff36000100e00001003a000b
:1023c0000000ea004f0578004f04be000000060040
:1023d0000101780080017800008268000408a300f1
:1023e0000500320013003700324078008059780031
:1023f0000004e00014003200030278000208a30089
:10240000f9ff3a0003007800010037000318780054
:1024100082007800b2017800f5ef2f00838242003d
:102420000382ea00048262000508280005026200b7
:10243000f6ff32000002780031417800025878003f
:102440000204e000fbff3a000400780000000600f0
:1024500080007800040037003104e00002003a00f8
:102460000000510000000600010178000108a300ef
:10247000f9ff3a008101780031017800f4ef2f0074
:10248000020242000281ea00020162000408280000
:1024900004016100f7ff3200830078000101780039
:1024a0003104e000fdff3a0000005100000006008a
:1024b000f1fb2f0080804000f98f500001003e00aa
:1024c0000050a00000000600f9ff3700f287470027
:1024d0008e1f780002027800030178000000e000ff
:1024e00002003200000778000100370072875700b1
:1024f0008002eb000100e000010032008102e900ef
:1025000070805700060009000018eb000080eb0007
:1025100080bf9f002310200093bf9f00aebf9f008d
:10252000b1bf9f00c5bf9f000100e00003003d0058
:10253000b104200081df880006003700004feb0067
:10254000eebf9f00debf9f008400780070805700c0
:102550008f0007004f0778002f01b1000000060030
:1025600084082000848f50001d0032000d003c00c4
:1025700014082000848f50002700320002003c0025
:10258000040820000400370024082000848f500035
:102590003400320044082000848f500043003a0089
:1025a00036003700040a2000848f500027003200d4
:1025b00004003c0004092000848f50003b003a00d6
:1025c00028003700020c2000828f50002f003200bc
:1025d000020f2000828f500034003a002b00370099
:1025e0009380e9000200e0000500320081097800d4
:1025f0001102fb00cfa2de00612bb90028003700da
:1026000081097800114278000482fb008002eb000f
:102610006033b8002200370013027800e400520053
:102620000200e00005003200810978001102be00be
:102630004fabde008603780019003700810978006f
:102640001102be006033b800150037009380e90026
:102650008109780011027800cfa2de00612bb90059
:102660000f00370093027800e8805200810978005b
:102670003102be002103be00090037009380e9004b
:102680000200e00002003200f1ff37009380e90011
:1026900081097800110278008002eb006033b800f5
:1026a0000498be000690be00100005000000050062
:1026b00044082000848f50002500320008003c00b0
:1026c00014082000848f50001400320024082000d9
:1026d000848f500024003200040820000c003700d2
:1026e00004092000848f50001f00320004003c00c9
:1026f00084082000848f500024003a000e00370028
:10270000040a2000848f500011003200040c2000c5
:10271000848f50001d003a000d0037009380e900bf
:10272000810978009100780001087800cf91de00df
:102730008288be00140037009380e9008109780088
:102740009100780001087800824878000e00370078
:102750009380e900810978009100780001087800f1
:1027600082087800080037009380e900810978002a
:1027700091007800010878006112b900612bb9005e
:102780008498be008690be00100005000000050081
:102790000200fa00881f780000047800e2bf9f0062
:1027a0006481570008007800b9fe07009800900087
:1027b0000148a300010032000080eb004f047800c4
:1027c0000080fa00000006008f1fd1007a02070087
:1027d0008f87e9000000e00000000600809feb000a
:1027e000750207008f87e9000000e0000000060086
:1027f0008103780046f907000001be006000b800c0
:102800000478a30013003a006220e10015003e00a6
:102810000d0039008301d1000281d3008180d300f3
:102820008301d1000281d3008180d3008301d100d4
:102830000281d3008180d3000538b000c42add00b6
:10284000f300b2008381720007f0a70003f0a0003c
:102850000000060083ff2700020020006110b9007d
:10286000f9ff370003ff2700f7ff37001400fa00d5
:10287000889fbe008a9fbe008c9fbe000004be00e1
:102880000205be00680047000a90be000890be0026
:10289000840207000070a7000bf0a1003043200065
:1028a0009e02900080825200b0fe2f000028e100be
:1028b00011003d00b0fc2f000028e100150034009d
:1028c0001e0990008e0890007e0090000501b00067
:1028d0000201d1008180d3000080d3008502e8008e
:1028e000fbff3a000b00e000a9023b006000100073
:1028f000e0801800a6023700f0ff2f00f1ff27004c
:102900000b00e000a2023b000100280000002000b4
:102910009f0237006000b8009d023700020ab9002c
:10292000001bb9000200b800810042008100430092
:10293000000006008c9fbe008a9fbe00889fbe00dc
:10294000ca0107000bf0a200040037008c9fbe00f4
:102950008a9fbe00889fbe00c40107000c48e100aa
:102960000b003a000c40e100020032008b0107002e
:10297000400037008b066d003e0032000af0a100d7
:10298000f3012000f2ff2f006110b9003900370079
:102990000c40e100370032000940e1000100360040
:1029a0007e0107008a856d00cf5dde000b05750096
:1029b0000006eb008804fd00890454000100320089
:1029c0007d0107000a04e00011003a000800e00061
:1029d00028003200040040008580480006014900bc
:1029e000878149000358a300180032008301d100f9
:1029f0000281d3008180d3000080d3000c86d300f5
:102a000001003900610676000804e800180037006c
:102a10000400500085805800060159008781590044
:102a2000060031000af0a2000c06ea00600018005f
:102a3000e080180060011900e081190003003a00ed
:102a40000004eb000005eb000a0037000348a30078
:102a500007003a000c06460000004800818048004c
:102a600002014900838149000804e900f7ff3700ab
:102a7000af013700c90137008c9fbe008a9fbe009e
:102a8000889fbe00790107000b056d000940e10039
:102a90000a003a000800e000020032000c40e100a9
:102aa00006003a000af0a1000c047800f3012000af
:102ab000f2ff2f006110b9009d0037000c40e100cb
:102ac0009b0032000800e000990032000c48e10051
:102ad00002003a000004eb00030037000900e000a8
:102ae00004003a000c0478006000b8006011b800df
:102af0008f0037000348a30006003a0000004000a2
:102b00008180480002014900838149000804e900ee
:102b1000f8ff37000748a30006003a00040242000d
:102b200085824a0006034b0087834b008904e90035
:102b3000f8ff3700fd3f20008d8454000904540045
:102b40008a1f7800881f78000004780081047800cc
:102b500002057800830578006000b8006011b800b5
:102b60000d042000050037000804440089844c004f
:102b70000a054d008b854d00080031000404540007
:102b800085845c0006055d0087855d008381d20039
:102b90008d06d300f4ff3b00070037000404440017
:102ba00085844c0006054d0087854d008381d20049
:102bb0008d06d300ecff3b000804440089844c00e0
:102bc0000a054d008b854d000800310004045400b7
:102bd00085845c0006055d0087855d000281d2006a
:102be0008d06d300f4ff3b000700370004044400c7
:102bf00085844c0006054d0087854d000281d2007a
:102c00008d06d300ecff3b000804440089844c008f
:102c10000a054d008b854d00080031000404540066
:102c200085845c0006055d0087855d008180d2009b
:102c30008d06d300f4ff3b00070037000404440076
:102c400085844c0006054d0087854d008180d200ab
:102c50008d06d300ecff3b000804440089844c003f
:102c60000a054d008b854d00080031000404540016
:102c700085845c0006055d0087855d000080d200cc
:102c80008d06d300f4ff3b00070037000404440026
:102c900085844c0006054d0087854d000080d200dc
:102ca0008d06d300ecff3b000b00e00004003d006c
:102cb0000404440085844c0006054d0087854d00c2
:102cc0000006eb008301d1000281d3008180d30094
:102cd0000080d3000c86d3008301d1000281d30091
:102ce0008180d3000080d3000c86d3008904740057
:102cf0008b0575008b84740001003200610676003c
:102d00004f0478004f0578000348a30007003a00fd
:102d10000c0646000000480081804800020149007e
:102d2000838149000804e900f7ff370000013700fc
:102d30001a0137008c9fbe008a9fbe00889fbe008c
:102d4000ca0007000b056d008a0578000c40e10001
:102d500008003a000900e00082003a000af0a100f1
:102d60000c047800f3012000f2ff2f006110b9007d
:102d70007c0037000c48e10004003a00870007009f
:102d80000900e00077003a00f4ff37000800e00097
:102d9000740032000900e00002003a007f000700e2
:102da00070003700ed3f20008d845400090444007a
:102db0008a1f7800881f7800871f7800861f780098
:102dc000851f7800841f7800cb19dd00c515de0053
:102dd0008b8571004b11dd00450dde000a05710089
:102de000cb08dd00c504de00898470004b04dd00e3
:102df0000440b8000546b8008c80400060814e0059
:102e0000044eb8008c8040000d0149008001eb00a9
:102e10000318ad000456b8000c0141008d81490033
:102e20000002eb000420ad000646b8000c01410092
:102e30008d81490060024a00054eb8000c01410036
:102e40008d81490060024a000556b8008c8141001e
:102e50000d024a008002eb000528ad000746b800cd
:102e60008c8141000d024a00e0824a00064eb80003
:102e70008c8141000d024a00e0824a004f06780032
:102e80000c5eb8008c8141000d024a00e0824a00cd
:102e90000656b8000c0242008d824a000003eb0087
:102ea0000630ad00074eb8000c0242008d824a0089
:102eb00060034b004f0678000c5eb8000c02420025
:102ec0008d824a0060034b000756b8008c82420096
:102ed0000d034b008003eb000738ad004f06780070
:102ee0000c5eb8008c8242000d034b00e0834b0067
:102ef0004f0678000c5eb8000c0343008d834b0036
:102f00004f0478004f0578000748a3000a003a00f4
:102f1000000040008180480002014900838149008f
:102f200004024a0085824a0006034b0087834b0057
:102f30000804e900f4ff3700030678008080700081
:102f400082807000010032006106760087017800ff
:102f50000601780085007800040078008804780075
:102f6000780037008d0037008c06460002003a00da
:102f70000000a6000000060060004800e080480055
:102f800060014900e08149000350a60000000600ee
:102f90008301d1000804e800000006000002fd00e3
:102fa0008102fd000203fd008303fd008804fd0093
:102fb0008a05fd00000006007048e1001a00390093
:102fc0007d0320000d48e1000a00390081057000f2
:102fd000830671008c8575008d8575000006eb00f9
:102fe0000cd8e700610676006000b8006011b800f8
:102ff000000006007048e1000b0039008c057800e5
:103000000006780001007800820078000301780053
:103010008001eb0003d8e70061067600f0845400dd
:10302000f4ff3a00000006006160e1000c48ad00ca
:10303000f08514008b06dd000966de000d067600c3
:103040008b0edd000900de000d0070008b16dd0028
:103050008908de008d8070008b1edd000911de0006
:103060000d0171008919de00000006000d00280026
:10307000fc7f20000d856100441cde00ef816100b3
:103080000c046400010032000340a0008d85630041
:10309000c43cde00ef8363008c84640001003200d6
:1030a0000740a0000c40e10006003a00ef866100f6
:1030b0008286760081867600808676000100320066
:1030c000180037000c48e10007003a00ef86630063
:1030d0008686760085867600848676000200320039
:1030e000aeff07000f0037000348a30005003a00b9
:1030f00081067000828676008386760001003200a9
:103100000804e8000748a30005003a00850672009d
:103110008686760087867600010032008904e80002
:1031200000000600cf047800cf0578001b003700b0
:10313000000278008102780002037800830378009f
:10314000880478000cf0a70087ff0700fd7f2000af
:103150000d40e100040035000d0478006000b80067
:103160006011b8000d0037000800e0000b003c00c3
:103170000400780085007800060178008701780057
:10318000e18414008cff07000cf0a70076ff070015
:103190000004eb000340a7000804e8004444dd00fd
:1031a0006fc56100880175004f04be004f05be0069
:1031b0004f06be0000000600889fbe008a9fbe002a
:1031c0008c9fbe000404be000605be00809fbe00aa
:1031d000829fbe0021000700040678000800be00a0
:1031e0000a01be001d000700840678004f03be00e0
:1031f0004f02be008d4f76007fb097001300330062
:10320000f0ff2f008b8f6b0006003b000d06660061
:103210000c00a7000a00370007f0a60010002000ed
:103220000a003700880f5200898f5a008a0f5b000e
:103230008b8f5b00030039001000200001003e006e
:103240000000200007f0a7000000ea004f06be00c3
:103250004f05be004f04be000000060005ff27001a
:1032600005826100070032000428e10001003200fd
:10327000240005000600070001003a004400050094
:103280000408050002000700f9ff3a0014000500d9
:103290006f826100810270008502710085027200f8
:1032a00000000600800078005002be005003be00ff
:1032b0004439de00f700b200f37f20000301610013
:1032c000090032000218e10016003a008501720080
:1032d00083017300838173000008200015003a0009
:1032e0004000200013003700850172008301730045
:1032f0008381730005003a0004a8be0006a8be0042
:10330000100020000b0037000201e9000402420017
:1033100085824a0006034b0087834b000748a300c1
:10332000f9ff32000740a00004a8be0006a8be00b6
:103330002000200080009800920098000000060005
:10334000680447000294be000094be00fc044700dd
:103350008694be008494be0009007800d1ff070067
:1033600008007800cfff070099007800814f7000b7
:103370000b003b000800be000a0007004f00b10030
:1033800003003700f3ff2700f2ff2f006110b900a0
:103390004f06be004f05be004f04be000080fa007d
:1033a00000000600e48240001078a300070032000d
:1033b000640240001178a3003400be001401be0076
:1033c000040032000330a700000006003500be00f4
:1033d0001501be000330a000000006001800fa002e
:1033e000889fbe008a9fbe008c1f78000004be002c
:1033f0000205be000802be000a03be00443ade0019
:10340000f07f20000006620020432000800f56005d
:1034100067003c006022b8006033b8000800be00be
:10342000e9fc07000000e000610032000802be0075
:103430000a03be00b4b79f00c5b79f00d6b79f0070
:10344000e7b79f00e00f5200e08f5a00e00f5b00eb
:10345000e08f5b000b003d006022b80006002000fa
:10346000073324000800be000a01be0031fd07003a
:103470006022b800060020000733240033fd070057
:103480000a0037006022b80006002000073324003d
:103490000800be000a01be002cfd07006022b80033
:1034a000060020000733240022fd07000802be00aa
:1034b0000a03be001ffd07000002be000203be009b
:1034c000f4b79f0085bf9f0096bf9f00a7bf9f00d6
:1034d000e03f2000800f560017003c007fb09700af
:1034e0008fb897001fb99700afb99700f0af9f0052
:1034f00081b79f0092b79f00a3b79f006044b800b8
:103500006055b8003fb29700cfb297005fb3970005
:10351000efb39700e00f5200e08f5a00e00f5b001e
:10352000e08f5b0022003d006044b8000a002000ec
:103530000bff2b001e0037006022b8006033b8007c
:103540007fb097008fb897001fb99700afb9970069
:10355000a2fc07000000e0000c0034007fb29700de
:103560008fba97001fbb9700afbb97000800be0043
:103570000a01be00f5fc07006022b800060020002a
:1035800007ff2300ebfc0700070037007fb297001e
:103590008fba97001fbb9700afbb97000800be0013
:1035a0000a01be00e9fc07000004be000205be00df
:1035b0000800be000a01be004f0678004f05be009d
:0c35c0004f04be000080fa00000006006e
:020000040000fa
:1035cc00544500004d5000003a200000252e00000c
:1035dc0031660000204300000d0a000000210000ad
:1035ec0021200000414c0000415200004d450000dc
:1035fc003a200000746500006d70000065720000d8
:10360c00617400007572000061200000637200009c
:10361c006974000069630000612000002121000032
:10362c000d0a000000000000111100002222000011
:10363c00333300004444000055550000666600001a
:10364c00777700008888000099990000aaaa0000ea
:10365c00bbbb0000cccc0000dddd0000eeee0000ba
:10366c00cecd0000acab0000486500006c6c0000d7
:10367c006f200000576f0000726c00006421000086
:10368c000d0a000000480000454c00004c4f0000a3
:10369c000000000004000000494400004c450000fc
:1036ac0000000000546d00007220000053760000f2
:0436bc0063000000a7
:020000040000fa
:1036c0001400fa002007980031079800420798007c
:1036d000530798006407980075079800060f980034
:1036e000170f98007e0090000000e00008003a00ec
:1036f00011028000f0f12f00008060000050a00057
:10370000100288000000000000000000ffff3700ea
:103710000e0890000000e00008003a00110280004e
:10372000f0f12f00008060000050a000100288001f
:103730000000000000000000ffff370060032000d1
:10374000100798009e00900060032000808f5000ba
:103750000800320011028000f0f12f0000806000ac
:103760000050a000100288000000000000000000cf
:10377000ffff37001e0090000e0890000000e000e0
:10378000190032007e0090000000e00016003200b8
:103790008e089000010f7800620320008000eb008b
:1037a0001e0078007ef507001e007800fe009000e5
:1037b000410898001e00780021c0b30051709800a5
:1037c0008003eb001e0378009e0a90006e029000ba
:1037d000de0190004e019000be0090002e0090008f
:1037e00070000700020037000000eb00000f7800b7
:1037f0001e0078000080fa00000006001200fa00a7
:103800002007980031079800420798005307980056
:103810006407980075079800060f98000000eb00f9
:10382000100798000e80e800800378000e0b9000cf
:10383000fe0290006e029000de0190004e019000aa
:10384000be0090002e0090009dff0700000f780042
:103850001e0078000000e000020032001e00780028
:10386000c40007001e0090000080fa00000006005f
:103870000e00fa0010079800210798003207980000
:1038800043079800540798006507980060032000dc
:103890004a270700000f78001e0078000000e000b3
:1038a00012003200620320008000eb001e0078004e
:1038b0003bf507003e009000000040003f27070056
:1038c000800078001e007800410898001e007800f3
:1038d000400890000000e00004003a001e0078005c
:1038e0006d2707000000eb00000f78001e00780035
:1038f0000000e0000c0032001e0078008040eb0069
:10390000517098008003eb001e037800ee029000d7
:103910005e029000ce0190003e019000ae0090004b
:103920001e0090001f0007001e0078000080fa00b3
:10393000000006001000fa002007980031079800e8
:10394000420798005307980064079800750798008d
:10395000fe0290006e029000de0190004e01900089
:10396000be0090002e009000c1ff070010079800d5
:103970001e0090000000e000050032001e009000d4
:103980007c00070010002000000f780002003700c4
:103990000080eb00000f78001e0078000080fa0025
:1039a000000006001400fa00200798003107980074
:1039b000420798005307980064079800750798001d
:1039c000060f9800170f98000e089000c00890008e
:1039d000110798001e0090000000e8000000a10000
:1039e000100798001e009000610060000000e000d9
:1039f0000800320011028000f0f12f00008060000a
:103a00000050a0001002880000000000000000002c
:103a1000ffff37000e089000c00890004e00900095
:103a20000000e90000004000808040000e08900087
:103a3000511098003e0090000000e0001800320095
:103a40000000eb00000f78000d0037003e009000f2
:103a50001e004000904078000e0890001e004000bc
:103a60007a004000014878003e0090001e004000af
:103a7000104078000004e000050032001e0fe8004e
:103a80001e007800ef0f5000f0ff360001003700f5
:103a9000000000000e0890008040eb0011689800c4
:103aa0006e009000e40f5000080036001102800004
:103ab000f0f12f00008060000050a000100288008c
:103ac0000000000000000000ffff37006e009000c3
:103ad000e40f50000200360040002000600798000c
:103ae0000e089000ee009000310898000e0890003b
:103af000ee009000611098000e0890000080e80031
:103b0000612507000e0890006c0040005e2507004c
:103b10000e0890008e089000410098006e00900002
:103b2000e50010000e089000610098000e0890005b
:103b30008e089000110898005e019000ae00900081
:103b40001e0090008f240700800078000e0890006f
:103b5000010878007e0090000000e00003003200c1
:103b60007e0090008e089000010878000080fa0026
:103b7000000006000400fa00100798000325070063
:103b8000404080000000e800404088000040800085
:103b90000000e00007003a009e009000014088000d
:103ba00040408000e10f50000d003a00bc080700c3
:103bb0000b003700704080000000e00008003a0071
:103bc00000408000b00890001e0090003008900077
:103bd000808f500002003e009e009000014088004f
:103be000b04080000000e800b04088001e00900057
:103bf000b008900060408000808f500003003600c5
:103c00001e00900030089000604088001e00900068
:103c1000300890006a00b90080007800c08321005d
:103c20000080400090009000010f78001e0090007e
:103c30009e007800210098001e007800a0009000ef
:103c40001e009000310098001e00780020009000b7
:103c50009e0090008180e800110098001e009000f6
:103c60008080e8001e007800210098001e0090006f
:103c7000300890006a00b90080007800c0832100fd
:103c8000808040001e009000510098001e009000af
:103c9000300890006a00b90080007800c0832100dd
:103ca000008140001e009000300890006a00b900ba
:103cb00080007800c0832100008040001000780060
:103cc0000000e80000097800bd2407007040800073
:103cd0000000e0000900320000408000b0089000c1
:103ce0001e00900030089000808f500003003100cb
:103cf000066c020000000000000000000080fa00d6
:103d0000000006000800fa00300798000000eb00f1
:103d1000000f78009d2407003e0090000000e000a6
:103d200002003a0000408000010037003e00900091
:103d3000100798001e0090000080e8002925070069
:103d40001e009000200890000000e00003003200f8
:103d50001e0090006c00400022250700b04080004b
:103d60000000e800b0408800004080009e00900005
:103d70000080680000f0a7000000ea000000e900f1
:103d80004f00de0020079800704080000000e00037
:103d90000e0032002e0090000000e0000b00320008
:103da0001e0090000080e80080007800c08821009c
:103db000bc240700304080000000e800304088004c
:103dc00010002000000f7800040037004040800001
:103dd0000000e900404088008608070078240700ba
:103de0001e007800e10f5000020032001e0090001b
:103df0005f080700704080000000e0001200320001
:103e0000004080009e009000808f50000e003a001d
:103e1000e04080000000e000080032001102800055
:103e2000f0f12f00008060000050a0001002880018
:103e30000000000000000000ffff3700066c0200d9
:103e400000000000000000000080fa0000000600f2
:103e50000c00fa0040079800510798000000eb00a2
:103e6000000f78004e0090000000e00008003a00cb
:103e700011028000f0f12f00008060000050a000cf
:103e8000100288000000000000000000ffff370063
:103e90005e0090000000e00008003a00110280007f
:103ea000f0f12f00008060000050a0001002880098
:103eb0000000000000000000ffff37003203070091
:103ec0005140800011079800e0408000e10f500051
:103ed0000800320011028000f0f12f000080600025
:103ee0000050a00010028800000000000000000048
:103ef000ffff37004e009000900078005e009000b9
:103f000000804000200798004e009000900078004c
:103f10001e009000808f50000c0036004e00900074
:103f2000900078002e009000808f50001200360024
:103f3000ae0090001e009000808f50000e003600f2
:103f400010002000000f78000b0037004e0090009a
:103f5000900078002e009000808f500004003e00fa
:103f6000ae0090001e009000808f500002003600ce
:103f700010002000000f78004e009000ae0090006e
:103f8000010878001e0078000000e0000500320003
:103f9000ae0090001e009000008050008000eb00fa
:103fa0001a0e0700fe020700300798003e0090003e
:103fb0000000e00003003a00066c02000000000070
:103fc000000000001e0078000080fa0000000600db
:103fd0000400fa00100798000000eb00000f7800c2
:103fe0001e0090000000e00011003200e602070011
:103ff000e0408000e10f5000080032001102800014
:10400000f0f12f00008060000050a0001002880036
:104010000000000000000000ffff37008000eb0000
:104020001e009000f90d0700dd020700000f780068
:104030001e0078000000e00003003a00066c020059
:1040400000000000000000000080fa0000000600f0
:104050000600fa0020079800cc2307002e009000ed
:104060000000e00002003a0000408000010037003c
:104070002e009000000f78001e007800b00890001d
:1040800011079800ce2307001e0090000080fa0060
:10409000000006000800fa00300798000000eb005e
:1040a000000f78003e0090000000e00002003a009f
:1040b00000408000010037003e009000100798008b
:1040c0001e009000b0089000210798002e0090007c
:1040d0000080fa00000006000600fa0020079800a1
:1040e000aa2307002e0090000000e00002003a0022
:1040f00000408000010037002e009000000f780083
:104100001e007800e010900011079800ac23070013
:104110001e0090000080fa00000006000800fa006f
:10412000300798000000eb00000f78003e00900080
:104130000000e00002003a0000408000010037006b
:104140003e009000100798001e009000e0109000c4
:10415000210798002e0090000080fa000000060061
:104160000e00fa0050079800610798000000eb006d
:10417000000f78006e009000e40f50000800360039
:1041800011028000f0f12f00008060000050a000bc
:10419000100288000000000000000000ffff370050
:1041a0006e009000e40f5000020036004000200036
:1041b00060079800752307005e0090000000e00093
:1041c00002003a0000408000010037005e009000cd
:1041d000100798001e009000e01090002107980042
:1041e000ae0090006e009000808f50007b00320087
:1041f000ee0090002e009000808f50000c003600e2
:10420000004080009e009000808f50000e00320021
:1042100000408000b00890006e009000808f500039
:104220000900310010002000000f78000600370060
:10423000004080009e009000808f500002003a00f5
:1042400010002000000f78001e009000b0089000c1
:10425000310798001e009000e01090001e009000b2
:1042600030089000808f5000050032001e00900042
:10427000b00890006e009000808f50000300310065
:104280001e009000ee009000310898001e00900083
:10429000ee009000611098001e00900060009000f9
:1042a0000000e000040035006e009000e500100002
:1042b0001e009000610098001e00900050019000c8
:1042c0003e0090006a00b90080007800c0832100a1
:1042d00000804000800f51003a003a001e0090001c
:1042e0000080e800bf2307001e009000b008900087
:1042f00060408000808f5000030036001e00900058
:1043000030089000604088001e0090003008900047
:104310006a00b90080007800c0832100008040005e
:1043200090009000410798001e009000ce00900081
:10433000210098004e009000a00090001e00900008
:10434000310098004e009000200090009e009000e8
:104350008180e800110098001e0090008080e80035
:104360004e009000210098001e0090003008900040
:104370006a00b90080007800c0832100808040007e
:104380001e009000510098001e0090003008900020
:104390006a00b90080007800c083210000814000dd
:1043a0001e009000300890006a00b900800078007c
:1043b000c083210000804000100078000000e80069
:1043c000000978001e0078000000e00003003200c1
:1043d000066c02000000000000000000f822070048
:1043e0000080fa00000006000800fa00300798007c
:1043f000e62207003e0090000000e00002003a00c4
:1044000000408000010037003e0090001007980037
:104410001e0090000080e800722307001e0090003c
:10442000200890000000e000030032001e00900011
:104430006c0040006b2307001e0090000080e80025
:104440008000780060892100162307000000eb003f
:10445000000f78000c0037009e00900042032000ff
:104460001e00410061407800e14f500005003a0015
:104470001e0090001e0040004003b0008040eb0092
:10448000014878001e0fe8001e0078000000e000e0
:10449000f1ff3400ca220700704080000000e000f5
:1044a00003003200b9220700d2060700c422070029
:1044b000004080009e009000808f50001b003a005a
:1044c000704080000000e0000f003200e0408000fb
:1044d0000000e0000800320011028000f0f12f001f
:1044e000008060000050a000100288000000000062
:1044f00000000000ffff3700066c02000000000013
:104500000000000009003700b1c4800021079800b6
:1045100040408000ae009000808f500002003a00c2
:104520000028ef0001003700c50307000080fa00f3
:10453000000006000800fa00300798000000eb00b9
:10454000000f7800be009000210798003e00900008
:104550000000e00008003a0011028000f0f12f0096
:10456000008060000050a0001002880000000000e1
:1045700000000000ffff37002e009000d0009000e8
:1045800060892100808f50001d003a002e009000ad
:10459000a008900020882100808f50001800320071
:1045a0002e009000200890000000e00014003a0067
:1045b00010002000000f78000000eb0010079800aa
:1045c0000c003700ae0090001e0090004003b000c9
:1045d00061407800e14f500003003a000000eb001a
:1045e000000f7800060037001e0090000000e80071
:1045f000100798001e0090000000e000f1ff34005a
:104600001e0078000080fa00000006000600fa0094
:1046100020079800ae009000010f78002e00900057
:104620000000e00008003a0011028000f0f12f00c5
:10463000008060000050a000100288000000000010
:1046400000000000ffff3700004080009e0078005f
:10465000808f5000490032001e0078000000e0000a
:1046600046003200492207001e007800b1ff070013
:104670000000e000400032001e80e800d922070060
:104680001e007800b008900060408000808f5000cd
:10469000030036001e00780030089000604088005b
:1046a0001e007800300890006a00b9008000780091
:1046b000c083210000804000900090001107980006
:1046c0001e0078009e009000210098001e009000bf
:1046d000a00090001e007800310098001e0090009d
:1046e000200090009e80e800110098009e80e80065
:1046f0001e009000210098001e00780030089000f5
:104700006a00b90080007800c083210080804000ea
:104710001e007800510098001e00780030089000bc
:104720006a00b90080007800c08321000081400049
:104730001e007800300890006a00b9008000780000
:10474000c083210000804000100078000000e800d5
:104750000009780000408000b00890001e0078003a
:1047600030089000808f500003003100066c02007a
:104770000000000000000000112207000080fa0085
:10478000000006000a00fa00400798000000eb0055
:10479000000f7800ce009000110798004e009000a6
:1047a0000000e00008003a0011028000f0f12f0044
:1047b000008060000050a00010028800000000008f
:1047c00000000000ffff37000000eb00200798000a
:1047d0001e00900057ff07000000e0004d0032006f
:1047e000e04080000000e00045003a001e0090001c
:1047f000b00890000040800030089000808f50008a
:104800000400360010002000000f78001000200087
:10481000904088001e0090000080e8007122070090
:104820001e009000b008900060408000808f500013
:10483000030036001e0090003008900060408800a1
:104840001e009000300890006a00b90080007800d7
:10485000c083210000804000900090003107980044
:104860001e009000be009000210098003e009000c5
:10487000a00090001e009000310098003e009000c3
:10488000200090009e0090008180e80011009800b8
:104890001e0090008080e8003e00900021009800fb
:1048a0001e009000300890006a00b9008000780077
:1048b000c0832100808040001e00900051009800bd
:1048c0001e009000300890006a00b9008000780057
:1048d000c0832100008140001e009000300890003d
:1048e0006a00b90080007800c08321000080400089
:1048f000100078000000e80000097800050037008b
:104900001e0090006c00400080007800208821008c
:10491000e42107001e0078000080fa000000060075
:104920001e00fa0010002000000f78000000eb00cd
:10493000300798000000eb002007980011003700b6
:1049400021b529002e0090000080400090407800a2
:10495000680147002e0090000000410001487800e7
:10496000e80047002e0090000080400010407800d2
:104970000004e000070032002e0090000000e80074
:10498000200798002e009000ef0f5000ecff34003d
:1049900001003700000000000000eb001007980045
:1049a0002e00370080f32200300798000000eb0053
:1049b000400f98000000eb00500f98007c0147006a
:1049c000fa00470078004700d70b0700ce09900097
:1049d0005e099000ee08900068004700030378002d
:1049e000820278000002eb008001eb0001017800f8
:1049f000800078003e00900080fb07008000780077
:104a00001e00900000014000a08120000000410035
:104a1000010878001e00900080004000a081200066
:104a200000804000100078000000e0000300320029
:104a300010002000000f7800020037000000eb009b
:104a4000000f78001e0078000000e0000700320030
:104a50001e0090000000e800100798001e00900063
:104a60000000e000cfff340001003700000000002c
:104a70001e0078000080fa00000006000200fa0024
:104a8000a7ff0700000f78001e007800e10f50001c
:104a900002003a00621a0700000f78001e0078003a
:104aa000e10f50000e003a0011028000f0f12f00db
:104ab000008060000050a00010028800000000008c
:104ac000000000000080eb00c040880010002000c3
:104ad000704088000a28ef00f22007000b00370022
:104ae0001e007800e10f400008003a00110280002b
:104af000f0f12f00008060000050a000100288003c
:104b00000000000000000000ffff370080da840092
:104b10000080fa00000006000200fa00551b0700a2
:104b200078fc07000000eb00000f7800070037005a
:104b30001e00780080004000a0812000008040001e
:104b4000100078006ffc07001e0fe8001e007800c0
:104b50000000e000f6ff3400ef04070011028000bf
:104b6000f0f12f00008060000050a00010028800cb
:104b700000000000000000000e28ef00e020070009
:104b80000080fa00000006000000fa00e04080000b
:104b90000000e800e04088000080fa000000060005
:104ba0000e00fa000000eb00000f78000000eb00a0
:104bb00010079800f52007000000eb003007980070
:104bc000e04080000000e00008003a001102800090
:104bd000f0f12f00008060000050a000100288005b
:104be0000000000000000000ffff3700e0408000f0
:104bf0000000e900e0408800e04080000000e000a4
:104c0000ae003a00404080000000e000ab003200ff
:104c10008100370040c4800030009000000f780011
:104c20001e007800a0089000410798001e00780040
:104c3000700090009e00780081089000210098008c
:104c40001e007800000890009e007800f10090009f
:104c5000110098004e009000900090001e01780016
:104c60006c004100808f500004003a001e00780064
:104c7000800890004e009000110098001e007800ff
:104c80008000eb00210898004e0090001000780092
:104c90008000e9004e009000010878001e007800b6
:104ca000d0009000510798001e007800200090006e
:104cb0009e007800b1009000210098001e0078004e
:104cc000300090009e007800a10090001100980034
:104cd0005e009000900090001e80e800808f5000e1
:104ce00004003a001e007800b00090005e009000c2
:104cf000110098001e0078008000eb005100980021
:104d00005e009000100078008000e9005e009000d6
:104d1000010878001e007800b00890006040800014
:104d2000808f5000030036001e007800300890008d
:104d3000604088001e007800300890006a00b900ca
:104d400080007800c08321000080400010019000a6
:104d5000620798001e007800ee0090002100980085
:104d60006e009000a00090001e00780031009800b6
:104d70006e009000200090009e80e80011009800d6
:104d80009e80e8006e009000210098001e007800d0
:104d9000300890006a00b90080007800c0832100cc
:104da000808040001e007800510098001e007800ae
:104db000300890006a00b90080007800c0832100ac
:104dc000008140001e007800300890006a00b900a1
:104dd00080007800c083210000804000100078002f
:104de0000000e800000978001e007800b00890007c
:104df0000040800030089000808f50000600360090
:104e00003e00900080004000208120000080400093
:104e1000110020000108780010c480000000e000ac
:104e20007cff3a001e0078000000e0000100320024
:104e30007004070082408000220798002e00900036
:104e40000000e00010003200a50007000000e000b4
:104e5000060032003e0090008000400020812000cb
:104e60000080400011002000010878002e00900012
:104e70000000e900200798002e0090000000e000ec
:104e8000f1ff3a001028ef003e0090008000400043
:104e90002081200000804000100078000000e00029
:104ea000060032001000200010079800004080002b
:104eb000066c020000000000000000004020070017
:104ec0001e0090000080fa00000006000200fa00b8
:104ed00051408000010f78001e0078000080fa0029
:104ee000000006000400fa000000eb00000f78004c
:104ef00051408000110798001e0090000080fa00c9
:104f0000000006000000fa00404080000080fa0027
:104f1000000006000400fa00100798001e00900030
:104f20000000e00002003a0000408000010037006d
:104f30001e009000000f78001e0078000000e000c6
:104f400008003a0011028000f0f12f00008060009c
:104f50000050a000100288000000000000000000c7
:104f6000ffff37009e0078007a8040000080fa0042
:104f7000000006000a00fa00200798003107980098
:104f8000420798003e0090000000e00008003a0050
:104f900011028000f0f12f00008060000050a0009e
:104fa000100288000000000000000000ffff370032
:104fb0004e0090000000e00008003a00110280005e
:104fc000f0f12f00008060000050a0001002880067
:104fd0000000000000000000ffff37002e009000de
:104fe0000000e00002003a000040800001003700ad
:104ff0002e009000100798001e0090005070900046
:10500000e24f50000a003a001e009000c0089000d5
:105010003e009000010878009e0090004e00900035
:105020000108780010002000000f78001000370001
:105030001e00900050709000e14f50000a003a00ae
:105040001e009000c00890003e009000010878000b
:105050004e0090008000eb00010878001000200056
:10506000000f7800020037000000eb00000f78000e
:105070001e0078000080fa00000006000400fa001c
:1050800010079800e04080000000e00008003200b7
:1050900011028000f0f12f00008060000050a0009d
:1050a000100288000000000000000000ffff370031
:1050b000b5fe0700b51f0700814080001e0090006c
:1050c0000080400080408800bd1f0700b4fe07003c
:1050d000000f78001e0078000080fa000000060033
:1050e0001000fa000000eb00000f7800e0408000a4
:1050f0000000e000cc003a00504080000000e800d2
:10510000100798009e009000514088001e009000fb
:105110000000e00016003a00104080001000780007
:105120000000e0000800320011028000f0f12f00c2
:10513000008060000050a000100288000000000005
:1051400000000000ffff3700114080002107980099
:105150002040800010408800ae0090002140880070
:10516000a04080000000e800a0408800a1030700e4
:10517000c04080009e009000808f50009900390050
:10518000010037000000000010408000100078008f
:105190000000e00003003a000080eb00c0408800ff
:1051a00090003700104080003000900030009000e8
:1051b000300798003e009000900090004107980052
:1051c0009e0090004e009000808f50000300310040
:1051d000ce009000c1408800820037003e00900061
:1051e000d0009000510798003e00900020009000f1
:1051f000be009000b1009000210098003e00900099
:1052000030009000be009000a100900011009800b6
:105210005e009000900090003e0090000080e8004a
:10522000808f500004003a003e009000b0009000d3
:105230005e009000110098003e0090008000eb009e
:10524000510098005e009000100078008000e90096
:105250005e009000010878003e0090002008900059
:105260000000e0001f0032003e009000a008900007
:10527000610798003e00900070009000be00900012
:1052800081089000210098003e00900000089000e6
:10529000be009000f1009000110098006e00900098
:1052a000900090003e0090006c004000808f500005
:1052b00004003a003e009000800890006e009000cc
:1052c000110098003e0090008000eb00210898003b
:1052d0006e009000100078008000e9006e009000e1
:1052e000010878003e009000b00890006040800007
:1052f000808f5000030036003e0090003008900080
:10530000604088003e009000300890006a00b900bc
:1053100080007800c0832100008040009000900051
:10532000710798003e009000fe0090002100980058
:105330007e009000a00090003e0090003100980098
:105340007e00900020009000be0090008180e80068
:10535000110098003e0090008080e8007e009000e0
:10536000210098003e009000300890006a00b900cb
:1053700080007800c0832100808040003e009000c3
:10538000510098003e009000300890006a00b9007b
:1053900080007800c0832100008140003e00900022
:1053a000300890006a00b90080007800c0832100b6
:1053b00000804000100078000000e800000978003c
:1053c0003e009000b008900000408000300890003f
:1053d000808f50006bff360010002000000f780017
:1053e00069ff370000408000300890006a00b90073
:1053f00080007800c0832100008040001000780009
:10540000e10f50000200360010002000000f78006d
:10541000904080000000e0000600320010002000f4
:10542000000f780003003700804080000000e80093
:10543000804088001e0078000080fa00000006000e
:105440000400fa00e04080000000e00003003200a9
:105450001000200090408800340037001228ef0030
:1054600061408000010f78000c0037001e007800ba
:105470000000e00008003a0011028000f0f12f0067
:10548000008060000050a0001002880000000000b2
:1054900000000000ffff37001e0fe9001e0078002b
:1054a0006a00b90080007800c083210000804000bd
:1054b000100078000000e000ecff32001e007800d1
:1054c0006a00b90080007800c0832100008040009d
:1054d000100798001e0090001000900090009000af
:1054e0001e009000110098001e0090009000900097
:1054f0001e00900064004000808f500004003a00bd
:105500001e009000b00090001e0090001100980056
:105510001e009000100090003000900000408800b5
:105520009e00780061408800004080000080fa0002
:10553000000006000400fa00000f78001107980030
:105540001e0078000000e00008003a001102800010
:10555000f0f12f00008060000050a00010028800d1
:105560000000000000000000ffff37000040800046
:105570006c004000800078001e007800e71e0700e5
:10558000110020001e009000a00807000080fa0013
:10559000000006000800fa00100798002107980094
:1055a000320798001e0090000000e00008003a005a
:1055b00011028000f0f12f00008060000050a00078
:1055c000100288000000000000000000ffff37000c
:1055d000e04080000000e00008003a001102800076
:1055e000f0f12f00008060000050a0001002880041
:1055f0000000000000000000ffff370000408000b6
:10560000ae00900001f0a000610098001e00900024
:1056100090009000010f7800004080009e0078000c
:1056200071009800004080009e007800a10090006a
:10563000010898001e0078002000900001408000c2
:10564000ec8040001100980000408000ec00400019
:105650001e00780021009800004080009e0090000d
:10566000210898001e009000100078008000e800db
:105670001e00900001087800110020003e009000fc
:10568000620807000080fa00000006000800fa0027
:105690001007980021079800320798001e0090001c
:1056a0000000e00008003a0011028000f0f12f0035
:1056b000008060000050a000100288000000000080
:1056c00000000000ffff37001e00900090009000d7
:1056d000010f7800004080009e0078007100980063
:1056e000004080009e007800a10090000108980012
