:020000040000fa
:080000000002040000000000f2
:020000040000fa
:0400080014030000dd
:020000040000fa
:04000c0014030000d9
:020000040000fa
:0400100014030000d5
:020000040000fa
:0400140014030000d1
:020000040000fa
:0400180014030000cd
:020000040000fa
:04001c0014030000c9
:020000040000fa
:0400200014030000c5
:020000040000fa
:0400240014030000c1
:020000040000fa
:0400280014030000bd
:020000040000fa
:04002c0014030000b9
:020000040000fa
:0400300014030000b5
:020000040000fa
:04003400e4020000e2
:020000040000fa
:0400380014030000ad
:020000040000fa
:04003c0014030000a9
:020000040000fa
:0400400014030000a5
:020000040000fa
:0400440014030000a1
:020000040000fa
:04004800140300009d
:020000040000fa
:04004c001403000099
:020000040000fa
:040050001403000095
:020000040000fa
:040054001403000091
:020000040000fa
:04005800140300008d
:020000040000fa
:04005c001403000089
:020000040000fa
:040060001403000085
:020000040000fa
:040064001403000081
:020000040000fa
:04006800140300007d
:020000040000fa
:04006c001403000079
:020000040000fa
:040070001403000075
:020000040000fa
:040074001403000071
:020000040000fa
:04007800140300006d
:020000040000fa
:04007c001403000069
:020000040000fa
:040080001403000065
:020000040000fa
:040084001403000061
:020000040000fa
:04008800140300005d
:020000040000fa
:04008c001403000059
:020000040000fa
:040090001403000055
:020000040000fa
:040094001403000051
:020000040000fa
:04009800140300004d
:020000040000fa
:04009c001403000049
:020000040000fa
:0400a0001403000045
:020000040000fa
:0400a4001403000041
:020000040000fa
:0400a800140300003d
:020000040000fa
:0400ac001403000039
:020000040000fa
:0400b0001403000035
:020000040000fa
:0400b4001403000031
:020000040000fa
:0400b800140300002d
:020000040000fa
:0400bc001403000029
:020000040000fa
:0400c0001403000025
:020000040000fa
:0400c4001403000021
:020000040000fa
:0400c800140300001d
:020000040000fa
:0400cc001403000019
:020000040000fa
:0400d0001403000015
:020000040000fa
:0400d4001403000011
:020000040000fa
:0400d800140300000d
:020000040000fa
:0400dc001403000009
:020000040000fa
:0400e0001403000005
:020000040000fa
:0400e4001403000001
:020000040000fa
:0400e80014030000fd
:020000040000fa
:0400ec0014030000f9
:020000040000fa
:0400f00014030000f5
:020000040000fa
:0400f40014030000f1
:020000040000fa
:0400f80014030000ed
:020000040000fa
:0400fc0014030000e9
:020000040000fa
:0401000014030000e4
:020000040000fa
:0401040014030000e0
:020000040000fa
:0401080014030000dc
:020000040000fa
:04010c0014030000d8
:020000040000fa
:0401100014030000d4
:020000040000fa
:0401140014030000d0
:020000040000fa
:0401180014030000cc
:020000040000fa
:04011c0014030000c8
:020000040000fa
:0401200014030000c4
:020000040000fa
:0401240014030000c0
:020000040000fa
:0401280014030000bc
:020000040000fa
:04012c0014030000b8
:020000040000fa
:0401300014030000b4
:020000040000fa
:0401340014030000b0
:020000040000fa
:0402080014030000db
:020000040000fa
:04020c0014030000d7
:020000040000fa
:0402100014030000d3
:020000040000fa
:0402140014030000cf
:020000040000fa
:0402180014030000cb
:020000040000fa
:04021c0014030000c7
:020000040000fa
:0402200014030000c3
:020000040000fa
:0402240014030000bf
:020000040000fa
:0402280014030000bb
:020000040000fa
:04022c0014030000b7
:020000040000fa
:0402300014030000b3
:020000040000fa
:04023400e4020000e0
:020000040000fa
:0402380014030000ab
:020000040000fa
:04023c0014030000a7
:020000040000fa
:0402400014030000a3
:020000040000fa
:04024400140300009f
:020000040000fa
:04024800140300009b
:020000040000fa
:04024c001403000097
:020000040000fa
:040250001403000093
:020000040000fa
:04025400140300008f
:020000040000fa
:04025800140300008b
:020000040000fa
:04025c001403000087
:020000040000fa
:040260001403000083
:020000040000fa
:04026400140300007f
:020000040000fa
:04026800140300007b
:020000040000fa
:04026c001403000077
:020000040000fa
:040270001403000073
:020000040000fa
:04027400140300006f
:020000040000fa
:04027800140300006b
:020000040000fa
:04027c001403000067
:020000040000fa
:040280001403000063
:020000040000fa
:04028400140300005f
:020000040000fa
:04028800140300005b
:020000040000fa
:04028c001403000057
:020000040000fa
:040290001403000053
:020000040000fa
:04029400140300004f
:020000040000fa
:04029800140300004b
:020000040000fa
:04029c001403000047
:020000040000fa
:0402a0001403000043
:020000040000fa
:0402a400140300003f
:020000040000fa
:0402a800140300003b
:020000040000fa
:0402ac001403000037
:020000040000fa
:0402b0001403000033
:020000040000fa
:0402b400140300002f
:020000040000fa
:0402b800140300002b
:020000040000fa
:0402bc001403000027
:020000040000fa
:0402c0001403000023
:020000040000fa
:0402c400140300001f
:020000040000fa
:0402c800140300001b
:020000040000fa
:0402cc001403000017
:020000040000fa
:0402d0001403000013
:020000040000fa
:0402d400140300000f
:020000040000fa
:0402d800140300000b
:020000040000fa
:0402dc001403000007
:020000040000fa
:0402e0001403000003
:020000040000fa
:0402e40014030000ff
:020000040000fa
:0402e80014030000fb
:020000040000fa
:0402ec0014030000f7
:020000040000fa
:0402f00014030000f3
:020000040000fa
:0402f40014030000ef
:020000040000fa
:0402f80014030000eb
:020000040000fa
:0402fc0014030000e7
:020000040000fa
:0403000014030000e2
:020000040000fa
:0403040014030000de
:020000040000fa
:0403080014030000da
:020000040000fa
:04030c0014030000d6
:020000040000fa
:0403100014030000d2
:020000040000fa
:0403140014030000ce
:020000040000fa
:0403180014030000ca
:020000040000fa
:04031c0014030000c6
:020000040000fa
:0403200014030000c2
:020000040000fa
:0403240014030000be
:020000040000fa
:0403280014030000ba
:020000040000fa
:04032c0014030000b6
:020000040000fa
:0403300014030000b2
:020000040000fa
:0403340014030000ae
:020000040000fa
:100400002fbc21000e7f22000e018800000000009a
:10041000000020000000e000020032000001200087
:100420002002880014000700810007000000e0009f
:1004300003003a00c0af2600010020000200370090
:100440000000200001002000810f70000100320038
:1004500014000700000020000000e000020032004d
:100460000000020000000000ac6b02000000000071
:100470000040da000000fe004440a90060082000af
:100480000000e0000300320000002000a00188000e
:100490004440a800000006008a1f78008b1f7800e7
:1004a0000000060091018800800478000000eb0045
:1004b0001a003700e284440032a0b4009905ba0063
:1004c000e284440032a0b4009906ba00e2844400f9
:1004d00032a0b4000006eb00476fde00fd07b2005b
:1004e000636ce10003003a00ebff07000000eb0043
:1004f0000a003700606ce10004003a00005deb0088
:100500008b05e900fdff3e00040037006168e10053
:10051000010032000086eb000b00070019c7ba008b
:100520001905ba000e04e00003003a000a00e000da
:10053000e0ff3a0000000600fe07b2009e018800be
:100540008a047800f5ff3700395dba008b05e900b1
:100550000c003200295dba008b05e900080032006a
:100560000c00e00003003a00e284440032a0b40032
:10057000f5ff370019ddba008b05e900faff3a00f4
:100580008904e800e184440032a0b40000000600c1
:100590003a2d0400000000001e5c04000000000072
:1005a000fa6404000000000012650400000000006e
:1005b0009a65040000000000d265040000000000fd
:1005c000f2650400000000003600f800809fbe00c5
:1005d000829fbe00849fbe00869fbe003400f8004c
:1005e00000002000a00188000000fa008460a9003b
:1005f000bc1107000000e000030032005c6b020049
:1006000000000000000000000080fa003400f90043
:100610004f03be004f02be004f01be004f00be00a0
:100620003600f900004006000040da000000fe003d
:10063000000005001400200092033700f4ff2f0093
:10064000900337000001be00240007000470a700db
:1006500003f0a1006509b100160032000d0035005d
:100660006828e10006003500f0ff2f00f1ff2700a9
:100670000300e00013003b0001002800000005001b
:1006800000004000818048008502e900fcff3a003c
:1006900008003700f88f420002003c008000eb00a9
:1006a000000005008100d1000080d3008502e80031
:1006b000fcff3a000300e00002003b006000100075
:1006c000e0801800000006004f89de0082017800fb
:1006d000870337006011b80095033700c70ade00b2
:1006e000f107b200f50fb20008003200e1cf42007e
:1006f000020032000170a00024000500810f70008c
:10070000010032000408050044000500810f70005c
:1007100002003a00140005008502e90000004000d4
:1007200081c04800fcff3b000170a00024000500d0
:1007300007f82700078361000638e10004003a004b
:10074000f7072000878361008703710001003a00ea
:1007500003f0a200889fbe008a9fbe008c9fbe004f
:10076000470ade000480a100c71ade000580a10050
:10077000070028000785600087856100f70f2000cb
:100780000720e1009e0032000728e1009c003200b3
:10079000010678000400e000b4003200f7072000f2
:1007a000878060000170a0000500e000c0003200fa
:1007b000f7072000878161000370a0000506520042
:1007c0000f003a000b50e1000b0032000308e1007b
:1007d00002003a000200e1007e00320002045000f4
:1007e00083845800040031000001fd008101fd00f8
:1007f0008402fd008a05fd006044b8002100370036
:100800000520e10005003d000001fd008101fd0023
:100810008402fd008a05fd00050652007a60e100b1
:10082000050035000170a1004722dd0084807000c2
:100830008a807000630037006044b800ef026600f1
:1008400007ff2f00070666000500e00006003400e1
:10085000f08312008714dd000511de00071bdd00a8
:10086000060171008519de007060e10005003500a9
:100870000904780082047800030178008001eb000d
:10088000700656000b50e10003003a0002004000e1
:10089000838048000400370060041400e0841c00da
:1008a00002005800838058000188a300060032002f
:1008b0008100d1000080d3008984d3000884d30054
:1008c0000402e800270037000178a30025003a0061
:1008d0000100e000030032008186cf0069865600e7
:1008e0000a0037008c0020000000e00004003a00fd
:1008f00009007800880478000004eb0070025200c0
:100900008086cf000d0646000c06e9007060e1000d
:10091000060035008000780009007800880478001f
:100920000004eb0070065600700252000c00e0005c
:100930000c0034008c08dd00f00316000703de0015
:10094000868070000c00dd00074bde0006007000a2
:100950008c4cdd000743de00868474000c44dd000f
:100960000c0252006120e1002000350061016000ae
:100970000700280087816400f7ff27008783640051
:10098000070374000300e0000600320082037300d6
:10099000040032000000e800e08048000188a30065
:1009a0000e003a00f70f20000720e1004a003d004a
:1009b0000170a1004722dd00810072008a80700072
:1009c0000000be004f06be004f05be004f04be0033
:1009d000000006006000b800faff37008100d10077
:1009e0000080d3000402e800eeff37000401780025
:1009f00089017400a10107008a807000f1ff3700af
:100a0000f7010700070278000001fd008101fd00e9
:100a1000f301070087027800850372000778a300be
:100a2000040032000001fd008101fd000602070004
:100a3000e4ff3700850362000768a3000800320066
:100a40000b50e10003003200f0ff2f00f1ff270000
:100a5000dcff37000001fd008101fd00d9ff3700f8
:100a60000468a300d7ff3200faff3700f8ff270021
:100a7000888360000b003a000000e00009003a00a3
:100a80008303640082837300020032000200be0010
:100a9000ccff37000b50e100ceff3a000200be0051
:100aa000c8ff370014002000810064003eff3700bb
:100ab000f8ff27008883610004003a000200e0008c
:100ac00002003a008c007800beff370015002000bd
:100ad0008301640039ff370001f82700000020007f
:100ae00081007500b7ff3700889fbe008a9fbe0057
:100af0008c9fbe001b0020000202be00058668001d
:100b000006002800060666004709de00f20fb20064
:100b1000820032000243e80080003200c729de0074
:100b2000f30fb2007d0032000343e8007b00320087
:100b3000f107b2000170a000f507b2000570a00037
:100b4000c708dd004903de00868070004700dd0035
:100b5000c72add004923de00868272004722dd00bd
:100b60000305510004035000858358000300310041
:100b700000004000818048000a05e9008c1f7800d1
:100b80008a9fbe0004005000858058000402420085
:100b900085824a0000004000818048000005eb008b
:100ba0000004be006033b8000406be000d48e1003a
:100bb00056003100110009004dccd8000c01b800de
:100bc0000d02b8008481410060824a008283530094
:100bd00003045c0084845c0060055d000a00e000a2
:100be00025003a00800578000d40e1004900310001
:100bf0008800780007007800110009004d88d800af
:100c00000c01b8000d02b8008481410060824a00e6
:100c10006003110083835b0004045c00e0845c00db
:100c20000900e00021003a004f01be000300e0008f
:100c30002b003200e3016000070673008c81710015
:100c400001003200640070004200de004e5edd00f4
:100c50000c007000c258de0001e0a0008301070014
:100c6000cf017800818071004f06be004f05be00a5
:100c70004f04be00000006008c8343000d044c00ae
:100c8000e0844c0060054d000000e9000a00e0002f
:100c9000d4ff32008c8343000d044c00e0844c00f0
:100ca00060054d000000e900ceff37000c03430053
:100cb0008d834b0060044c00e0844c000000e90090
:100cc0000900e000d8ff32000c0343008d834b0085
:100cd00060044c00e0844c000000e900d2ff3700c3
:100ce0004200de004e5edd000c007000c258de00e7
:100cf00001e0a000cf0178000300e000daff32003d
:100d000060001000e0801800d7ff3700f0ff2f00d0
:100d1000aaff3700f0ff2f00b9ff37000404be0020
:100d20002f010700870678000004fd008104fd0004
:100d30002b010700078366000678a300030032003a
:100d40000960a7000800be002c0037000d78a30042
:100d5000020032000800be00280037000778a30018
:100d600026003a0001f0a10009f0a1000668a300e6
:100d700003003200f1ff2700f0ff2f00baff370019
:100d80000d68a300030032000800be008c807000d4
:100d9000b5ff37000768a30007003a000648a30024
:100da00003003200f1ff2700f0ff2f00aeff3700f5
:100db0000d48a300030032006000b8008c80700072
:100dc000a9ff37000748a3000400320001f82700fc
:100dd000000020008c807000a3ff37007601070020
:100de0000004fd008104fd00020578007201070087
:100df0000802be008a01780059ff37000160a00098
:100e000012022000d241880097ff37000100e00065
:100e1000120032000500e00010003200889fbe0082
:100e20008a9fbe008c9fbe000006eb0001f8a30065
:100e30000300320060001000e08018000cf0a000f9
:100e400005f8a3000300320060021200e0821a00dd
:100e50000cf0a2008005eb0041ff37006000b800f5
:100e600002000500038368000700280007036300f1
:100e7000470ade000480a100c71ade000580a10039
:100e8000f70f20000720e100420032000728e100b0
:100e900040003200889fbe008a9fbe008c1f7800f1
:100ea000f107b200f307b2000400e0006400320072
:100eb0000170a0000500e000680032000370a0008f
:100ec00085054200eb07b1000204b8000302b80038
:100ed0008484440060854a00020ab8008484440087
:100ee0000a854a00030ab8000405450004003300df
:100ef0000804d0008984d2000a85d2008b05e9005d
:100f00006158e1003d003500021020000901610038
:100f10000308200089816100f707200087836400af
:100f200008867300c84cde00c853dd008784740057
:100f30004855de000300e000060032008203760020
:100f4000040032008904e80060054d000a88a3000f
:100f50000c003a00f70f20000758e10044003d0064
:100f60000a70a100c75ddd000a8575008a00730064
:100f7000090078004f0678004f05be004f04be0000
:100f8000000006000a05d1008984d3008b05e80023
:100f9000f0ff3700881f78000604780090000700f3
:100fa000070278000001fd008101fd008c000700b0
:100fb00087027800850372000778a30005003200dd
:100fc0000001fd008101fd009f0007004f04780033
:100fd00000000600850372000748a30003003200ea
:100fe000f0ff2f00f1ff2700f8ff3700000020007e
:100ff00001f8270088807000f4ff3700880178002e
:101000004848dd00808171004848de00c850dd009e
:1010100001007000c850de00060478000b01780063
:101020001600070088807000d2ff37000500e0003e
:1010300005003200170020003a0007009dff37002e
:1010400081037000f9ff3a00860078004f067800af
:101050004f05be004f04be00000005008303710071
:10106000f9ff3200270020002e00070094ff370010
:1010700001f8270086807000f4ff37000100e000cf
:1010800026003200610111007810e10023003c00cd
:101090006022b8007010e100040035008002780082
:1010a000010078008000eb00700151000200e000b8
:1010b0000900340070031100062add00822ade00d8
:1010c0008603dd00878272000200de00860bdd00f1
:1010d000070070008208de0084817100f4ff2700a1
:1010e000048262008481710004002800848262000e
:1010f0006102600005f0a600000006000482710095
:10110000070032000000e800e08048000000060010
:101110000002be006000b800efff37006000b800ba
:1011200000000600889fbe000004eb006138e1006b
:1011300016003a000100e00008003a00c800de0096
:101140004800dd00880020000100e00003003a00b4
:10115000c800de004800dd00680444008184cf0040
:10116000e9845400060034008908dd00f08314008f
:101170008703de00878070000900dd000904440059
:10118000610214004f04be00000006000300e000ee
:1011900008003a00c811de004811dd008800200078
:1011a0000300e00003003a00c811de004811dd0032
:1011b000680444008384cf00e984540006003400ae
:1011c0008919dd00f08314008713de008781710028
:1011d0000911dd0009044400e1021400e9ff3700b1
:1011e0002700200001f0a70017002000470bde00b9
:1011f000f60fb200040032000643e8000a00320095
:101200004702b3000000060001037800f607b200b1
:101210000603700002003a000703b3000000060056
:101220008702b3000000060001037800f607b20051
:1012300006037000020032000770a00000000600e4
:101240000760a000000006000478a300040032003c
:101250000578a300030032000168a30001003a00f2
:101260000200be000160a0000000060081017000c5
:10127000270032008002eb0001f8a30003003200d7
:1012800060001000e080180015002000f407200026
:101290000202420020003400f703200087036000b0
:1012a0000604200000036300020820000001610022
:1012b0004700de00c909dd0000807100c708de00bc
:1012c0000600e000080032008703710006003200cb
:1012d0001000b0000180b0000188a30002003200bd
:1012e000c108de000402e800f107b200f30f20009d
:1012f0000320e10003003d004722dd008100720071
:101300002900370001f827000000eb002600370015
:101310006000b80000000600680212007f20e100b3
:10132000020034006000b8001f0037006011b800f0
:101330007020e10004003500800178000100780091
:101340008000eb00700252000400e000090034004d
:10135000f00312000719dd008419de000703dd0029
:10136000868171000400de00070bdd0006007000be
:101370008408de00f7ff2700838363008703710082
:101380000600280003036300070032000700e000a6
:1013900003003a0061016000028173000200320024
:1013a0001000b0000180b0000500a600000006009b
:1013b00001f0a000000006004f0ade004709de0031
:1013c000f107b200f20fb2000b003200f207b100d9
:1013d0000170a000c708dd00c901de008380700035
:1013e0004700dd000400a6000000060060001000b9
:1013f000e080180000000600810f700001003a0034
:10140000000006008182cf000500e00010003e00d1
:101410008082cf00ee8242007028e1000400390093
:1014200007003e00800078000000eb000e0037004f
:10143000708312008600de000500dd000a00370020
:10144000708352008600dd000000eb0006003700cc
:10145000e28252008508dd00708312000603de0080
:10146000868070000500dd007507b0000501ea0008
:101470000400a6000000060060001000e0801800d4
:1014800000000600889fbe008a9fbe00841f78006f
:101490007c0007004f00780011003300f0ff2f00a0
:1014a000838f6c0006003b00040565000a00a7005e
:1014b0000800370009f0a6001000200008003700df
:1014c000820f5400838f5c0003003900100020005d
:1014d00001003e000000200009f0a7000000ea0023
:1014e0004f05be004f04be000000e00000000600f3
:1014f000881f7800030478000300e00007003d0027
:1015000060001000e080180060011900e0811900ff
:1015100002003b0001f02d0003003700040007002b
:1015200008f0a70001f0a0004f04780000000600ba
:10153000889fbe008a9fbe00008270000402710076
:1015400004827100260032000004be000200be00ca
:101550006011b8006b092000950220000182cf00c5
:101560000a0039000541b1000082cf0007003900b0
:101570000541b1000982cf00040039000541b100e6
:101580000882cf00010039000541b1000542520038
:10159000120032000a003b00828171006101640088
:1015a0008100d1000080d3008984d3000884d30057
:1015b0008b05e8000442e800f7ff3a000700370017
:1015c0000804440089844c000000480081804800e1
:1015d0008b05e9000442e900f9ff3a000300070027
:1015e0004f05be004f04be00000006008100200031
:1015f000618055000b003d000b00200061fe2f00b4
:101600000100e1001d00340082817100610164006d
:101610008904d1000884d3000000e800faff3a00f2
:10162000710020006100640003007000020060008f
:101630000900320061044400e0844c000988a500e0
:10164000050032008b05e8006808e10002003a005e
:101650008904d1000884d300f20f20000258e10071
:1016600005003d00c75ddd00f907b2008980750007
:1016700008007800000006000bf827008b007800b7
:10168000000005000004be0014fc07000003be00bb
:101690000405be000200be0010fc0700844f750068
:1016a000000006000000fa00e88157004fb99700db
:1016b000540207000080fa000000060078000700ce
:1016c000d000070081010700a901070002010700ff
:1016d000c502070070023700800178000200370061
:1016e000b15978000201e9000200e000fcff3a0075
:1016f00000000600889fbe008a9fbe00800478001c
:101700000200e0005b00320001407800814c78006c
:1017100082814400f1f99f00e20f5100550036002c
:1017200091449800a1449800e1f99f00d1f99f00ed
:10173000e60f51004f003600b1449800c1f99f00f8
:10174000e80f51004b0036000905ea00630565000b
:101750000a8444000a055100c1ff2f0001056500fd
:101760000080fb008000eb0012102000131020000e
:1017700089050700008cbe000a01440060b99f0083
:1017800071b99f00e80f55003a0036002004980018
:1017900031049800400498005104980020b99f003b
:1017a00031b99f0040b99f0051b99f00f80f550013
:1017b000300036006004980071049800000c980016
:1017c000110c9800200c9800310c9800400c9800e7
:1017d000510c980020b19f0031b19f0040b19f0093
:1017e00051b19f0060b19f0071b19f0000b99f008f
:1017f00011b99f00640164007801410002044400b3
:10180000020555006011b8000203be000002be00d0
:101810000403be006022b8000000720081807200e4
:10182000020173008381730010003700009cbe002a
:101830000294be004004980051049800620498008d
:1018400073049800000c9800110c9800220c98006a
:10185000330c9800400c9800510c9800620c9800d2
:10186000730c98000a02b1000802b000ff0f550087
:10187000eeff3e00090078004f05be004f04be0099
:1018800000000600881f7800000478000800780037
:10189000af040700080078004f047800000006003d
:1018a000ec874700889fbe008a9fbe008c9fbe00c9
:1018b0008e1f780000067800010478001807900059
:1018c0002805900098067800cdb79f00b8059000d5
:1018d0003202be002203be000400be000601be00ac
:1018e0004f18de006011b8008000eb00d0b79f00f9
:1018f000e1b79f00f2b79f0083bf9f00800478008c
:101900000900e000060032006000b8006011b80075
:10191000040250008582580006035900878359004d
:101920000e00e000020035000d10a100cdb79f00b1
:101930000900e00005003a004fb097000028a3001e
:1019400002003a000038a300020032008a00e900d9
:10195000010037008a007800f8815700a2002000bb
:1019600008007800860007000900e00003003a0044
:10197000cfb097000128a300080032000000e90062
:1019800000814500b1c2b3000900e000010032004f
:10199000d1c2b30001497800050037000138a30027
:1019a000030032000000e90001c2b3008175780035
:1019b000480190000201e9000001510080804500cb
:1019c0004fb297008a0178000c007800510207009e
:1019d0009c0090000188a300040032009800900051
:1019e000810f500001003d00010078004f07780092
:1019f0004f06be004f05be004f04be00cf00b10031
:101a0000000006000200fa00889fbe008a9fbe0008
:101a10008005780001047800020078001801900029
:101a20002805900098007800b1bf9f00b80490008e
:101a30000200e000020035000110a100b1bf9f00cc
:101a4000ea815700820020008a0078003002be0040
:101a50002003be0008007800490007003fb9970046
:101a6000f0006100030032000000e90001c3b30090
:101a7000817478003fb99700e800610003003200ec
:101a80000000e90001c2b3008174780048019000b1
:101a90000201e90000015100808044003fba970034
:101aa0008a0178000b0078001a0207009b00900062
:101ab0000188a3000400320098009000810f5000bc
:101ac00001003d00010078004f05be004f04be003c
:101ad0000080fa0000000600ea874700889fbe00e9
:101ae0008a9fbe008e1f78000004780003007800f3
:101af0007287570084e2260055c72600049fbe0067
:101b0000c3962200030f78006c875700004feb004c
:101b100011059000a1049000910578000200e000fa
:101b20000200320002077800010037007287570078
:101b30000000e00002003a000e00780024040700d4
:101b40000a00e000030035008a0f50000100360053
:101b50000a0078000b027800890178000001780003
:101b60008e00780008007800ea0107004f0778002f
:101b70004f05be004f04be00af00b10000000600dc
:101b8000f4874700889fbe008a9fbe008c9fbe00de
:101b90008e1f78000605be000404be0081bf9f00b2
:101ba00082b79f00f3b79f00b0009000e1b79f009d
:101bb0001301780092b79f009006900040009000bb
:101bc0000000e900000678000d00e00001003d0083
:101bd0001d0020008040eb00efb19700817178007c
:101be0001e0020001f0037000c06e9000fb0970010
:101bf000cf80de006109b900a0b79f00b1b79f0098
:101c0000c2b79f00d3b79f000203be000002be0010
:101c10000800be000a01be000505070000077800a5
:101c20000e4078000043b000efb0970080707e0057
:101c30008d06e9000fb997000201e90082bf9f00fd
:101c40002fb29700bfb297004fb39700dfb3970052
:101c50000800be000a01be00ee0407000205be0037
:101c60000004be000c00e0000d003400e00f540042
:101c7000e08f5c00e00f5d00e08f5d00daff3a006e
:101c80000d00e000d8ff3c008fb997000300e00092
:101c9000030034001fb097000018a300d2ff3a00e1
:101ca0000e00e00002003a00ffb097001140a100d2
:101cb0000c0078004f0778004f06be004f05be00ad
:101cc0004f04be004f01b100000006000200fa0000
:101cd000889fbe008a9fbe0000057800010478003e
:101ce0000200780018019000a80490009800780085
:101cf000b1bf9f00b80590000200e000020035006f
:101d00000110a100b1bf9f00ea815700a20020008e
:101d1000890078003002be002003be000800780071
:101d200097ff0700480190000201e90000015100ff
:101d3000808045003fba9700890178000a0078004a
:101d4000740107009a0090000188a300040032008b
:101d500098009000810f500001003d0001007800c4
:101d60004f05be004f04be000080fa0000000600d0
:101d7000fa874700889fbe008a9fbe008c9fbe00e6
:101d80008e1f7800800478000104780082057800b6
:101d9000180190002805900018077800b8009000fe
:101da0000200e000020035000e10a1000100370023
:101db0001200200070006700e0b79f0009003200a9
:101dc0003b02be002b03be00e00f5200e08f5a0022
:101dd000e00f5b00e08f5b00020032008a86e900c2
:101de000010037008a067800e8026700f5b79f0017
:101df000010032008d06e9003b02be002b03be004d
:101e0000e4af9f00f5af9f0086b79f0097b79f0094
:101e1000480690000c06e9000040eb0080707e0050
:101e2000efb297007fb297008903780081047800b1
:101e3000d8af9f00020478008bbf9f008a0578000e
:101e4000034578002a0037000c06e9006fab9700c5
:101e50006f006300e90f500002003c000003b00077
:101e6000010037007005b0000a03fb001604b10042
:101e7000f90f53000c003e00000378000650a0004c
:101e80001606b100f90f530007003e00b4b79f00db
:101e9000a5b79f00c7b79f006c030700cfb397009b
:101ea000afb297003fb2970080747e000804e9004b
:101eb0008d06e9006fa89700ffa897000fb1970063
:101ec0009fb19700460020008301d1000281d3001a
:101ed0008180d3000080d3000603e900faff3a00b6
:101ee000e0af9f00f1af9f0082b79f0093b79f00c4
:101ef000e10f56000f0034006fa89700ffa897006d
:101f00000fb197009fb19700e00f5000e08f58008d
:101f1000e00f5900e08f5900cbff3a000800e000c5
:101f2000c9ff3c000d00e000020034000e18a300c1
:101f3000c5ff3a0089007800f4b79f008704780055
:101f40005fac97008a4178000b0578008fbd970041
:101f50000500e000100032003b02be002b03be0073
:101f6000e4af9f00f5af9f0086b79f0097b79f0033
:101f7000e00f5200e08f5a00e00f5b00e08f5b0043
:101f8000050032000c06e90083707e000c06e900b3
:101f900000c3b30080707e00ffb297000500e00030
:101fa000030032000c06e90000c2b30080707e001e
:101fb000480190000201e9000c0151008c804000b2
:101fc0000e0278008a01780009007800d10007002d
:101fd000990090000188a30004003200980090004e
:101fe000810f500001003d00010078004f0778008c
:101ff0004f06be004f05be004f04be00af01b1004a
:1020000000000600f28747008e1f78000202780069
:10201000030178000000e0000200320000077800b1
:1020200001003700728757008002eb000100e000da
:10203000010032008102e9007080570006000900ab
:102040000018eb000080eb0080bf9f0023102000f1
:1020500093bf9f00aebf9f00b1bf9f00c5bf9f0051
:102060000100e00003003d00b104200001de880013
:1020700006003700004feb00eebf9f00debf9f0061
:102080008400780070805700f70207004f0778003f
:102090002f01b1000000060084082000848f50004a
:1020a0001d0032000d003c0014082000848f5000f9
:1020b0002700320002003c00040820000400370022
:1020c00024082000848f500034003200440820008f
:1020d000848f500043003a0036003700040a200085
:1020e000848f50002700320004003c0004092000c7
:1020f000848f50003b003a0028003700020c20007b
:10210000828f50002f003200020f2000828f50007b
:1021100034003a002b0037009380e9000200e00011
:1021200005003200810978001102fb00cfa2de0019
:10213000612bb9002800370081097800114278002e
:102140000482fb008002eb006033b80022003700fd
:1021500013027800e40052000200e00005003200a3
:10216000810978001102be004fabde0086037800c3
:1021700019003700810978001102be006033b800f1
:10218000150037009380e90081097800110278007a
:10219000cfa2de00612bb9000f0037009302780058
:1021a000e8805200810978003102be002103be00a0
:1021b000090037009380e9000200e00002003200cd
:1021c000f1ff37009380e90081097800110278005f
:1021d0008002eb006033b8000498be000690be0099
:1021e000100005000000050044082000848f500006
:1021f0002500320008003c0014082000848f5000a5
:102200001400320024082000848f50002400320083
:10221000040820000c00370004092000848f5000bf
:102220001f00320004003c0084082000848f50000e
:1022300024003a000e003700040a2000848f50006a
:1022400011003200040c2000848f50001d003a0061
:102250000d0037009380e900810978009100780033
:1022600001087800cf91de008288be00140037009c
:102270009380e900810978009100780001087800d6
:10228000824878000e0037009380e90081097800c9
:102290009100780001087800820878000800370073
:1022a0009380e900810978009100780001087800a6
:1022b0006112b900612bb9008498be008690be00ff
:1022c0001000050000000500889fbe000004780093
:1022d0004800900082047800808f5400010036008e
:1022e000800478000901780058009000fafc07008b
:1022f000580090000900400050049800c800900069
:1023000089845000490498000048eb004f04be0047
:1023100000000600f2874700889fbe008a9fbe002b
:102320008c9fbe008e1f7800800478000105780025
:1023300002047800830578006107620002003a0019
:102340008b0f540008003900080178008a007800db
:1023500009007800dcff07008b0f540002003900f1
:10236000880578001e003700088655000c017800ab
:10237000f00f56000100360002012000010220008b
:102380007e805700dbfc07008c06780005003700d4
:1023900002012000fe80570009007800caff0700f4
:1023a000f0865600ef8f5600f9ff3e004461de00d4
:1023b00000ff2f000091b90002014600fe80570087
:1023c00009007800c0ff07000e00e00004003a009a
:1023d000080178008a00780009007800baff070039
:1023e0000b0078004f0778004f06be004f05be0077
:1023f0004f04be002f01b1000000060000000500e0
:102400000000050000000500000178000040eb001e
:102410008080fb0081804000a3ba210063c2780065
:102420000404e00003003a00b0ba210060c0780064
:102430000000060092017800934f520004003a0019
:10244000b0ba210060c078000309e800010037003d
:102450000040e800ea4f5000edff360000000600a3
:10246000f6874700889fbe008a9fbe008c9fbe00f3
:102470008e1f78000005780001047800830578003d
:10248000040678000000eb00c0b79f008080eb00de
:10249000d1b79f00e0b79f00f2b79f00000820006f
:1024a00080bf9f0098007800010078008004eb0056
:1024b000010037008904e800304178000204e000a0
:1024c0000300320053c2b300834f5100f9ff3a00ba
:1024d0000900e00004003200090178000a007800d9
:1024e00079ff0700188c44001807780050c2b30029
:1024f0009e4f10003f013a000e07e8000e0c7800d6
:1025000010003700cfb097000100a0000b0037008b
:10251000cfb097000110a00008003700cfb097009f
:102520000120a00005003700cfb097000130a000c7
:1025300002003700cfb097000140a000c1b79f0054
:10254000000ce8001800780090407800b2c2b30098
:1025500082cf5000f1ff320007003c0002c2b300fe
:1025600082cf5000f0ff320032c2b30082cf500061
:1025700007003a00efff3700d2c2b30082cf50000d
:10258000e0ff320002c3b30082cf5000e0ff320010
:10259000a2c2b30082cf50000d003a00000ce80048
:1025a0001c80e900000e780010007800e0b79f0062
:1025b0000000e0000f003d00cfb097000100a20036
:1025c000c1b79f000000ea00e0b79f000900370094
:1025d00039010700e0b79f0001003700000ce80058
:1025e000180078009000fb000103b100e98f500053
:1025f000faff36004fb097000008a3000200320037
:102600000010a100c0b79f0018007800e1c2b3001d
:1026100090cf100016003a008000eb00d1b79f0069
:102620000000e800000c7800a1c2b30090cf1000b9
:1026300006003a00000ce8001c80e900000e78005b
:1026400010007800d0b79f00090037001a0107007a
:10265000d0b79f0001003700000ce8001800780098
:102660009000fb000103b100e98f5000faff360033
:102670000800780064ff07008046780018007800a2
:102680001000fb006a01070091062000810f500036
:102690003800320012003c0041062000810f50003b
:1026a000340032000a003c0011062000810f500067
:1026b0002000320031062000810f5000a0003200bf
:1026c00051022000810f5000bc003a00b4003700d6
:1026d00071062000810f5000b8003c0088003700d0
:1026e00001072000810f50005c00320007003c0011
:1026f000e1062000810f50007a003200f106200030
:10270000810f5000ad003a0039003700510720001a
:10271000810f50002700320081072000810f5000f8
:102720004200320031072000810f5000a3003a0020
:102730008f0037008d80fb000c01780000fe2f0019
:102740000f004000560107000000e000a800320022
:1027500018007800000ce8009041780002fe2f007d
:102760000f014100f88057000a00780024ff07009d
:102770000e0037008d80fb008c01780012002000d5
:1027800000fe2f000f00400043fe07000000e000a5
:1027900097003200180ce80002fe2f000f014100e4
:1027a000f88057000a0078003dfc07008084440050
:1027b000900037008d80fb008c0178000001eb0059
:1027c00000fe2f000f00400033fe07000000e00075
:1027d00087003200180ce80002fe2f000f014100b4
:1027e000f88057000a00780038fd0700efff370037
:1027f0008d80fb008c0178000001eb0000fe2f00b3
:102800000f00400024fe07000000e00078003200c6
:10281000180ce80002fe2f000f014100f88057005d
:102820000a00780077fc0700e0ff37008d80fb008e
:102830008c0178000001eb0000fe2f000f0040002b
:1028400015fe07000000e000690032001800780063
:10285000000ce800904178001c0037008c017800e3
:102860000001eb00010f200000fe2f000f004000d0
:1028700009fe07000000e0005d003200180ce800cf
:102880000fb097009fb097002fb19700bfb197008e
:10289000e00f5000e08f5800e00f5900e08f590022
:1028a00009003a00cfb597006fb4970020ba210015
:1028b000c70007000b02780088017800000178004b
:1028c00021ba21004700370083c7b30002fe2f0062
:1028d0000f014100f88057000a00780024fd07002e
:1028e000b2ff37000b8144008d80fb008c01780023
:1028f00000fe2f000f0040003bfe07003c003700a9
:102900008d80fb000c01780000fe2f000f004000be
:10291000e30007000000e0003500320018007800f6
:10292000000ce8009041780002fe2f000f014100ea
:10293000f88057000a007800b1fe07009bff3700bf
:1029400000c8b30080cf560029003a00180ce800f8
:102950001c80e900000e780010407800e0df9f0046
:1029600013002000e2fd2f000f0141000800370096
:1029700000c8b30080cf56001d003a00180ce800d4
:102980001c80e900000e78008001eb001001780047
:10299000f88057000a0078004ffc070083ff3700db
:1029a00000c8b30080cf560011003a00180ce800b0
:1029b0004fb29700efb19700080037000e0c780077
:1029c0000000eb00c0b79f00e0b79f000080eb0065
:1029d000d0b79f000002eb008401780012002000b5
:1029e00081ba21000a0078004afe07006fff370015
:1029f000180ce800090078004f0778004f06be0069
:102a00004f05be004f04be006f01b100000006007c
:102a10008200fa00889fbe008a1f780000057800b7
:102a200082047800c13f9f000004eb0010003700d3
:102a30000902780088017800a2f72f000f014100f9
:102a400081f72f008f8040000a00780084fe070085
:102a500008004000880f500004003d00b004200032
:102a600000de88000084eb000400370000047800da
:102a70004f3897001004e000edff3a00080078009e
:102a80004f0578004f04be000080fa0000000600e9
:102a9000800078001000200002022000828f500089
:102aa00004003200e9805000e48f5000010036003d
:102ab0000000eb0000000600889fbe008a1f78001f
:102ac000000578000a047800984478000805e800ba
:102ad0000900fb00eeff07000000e000f9ff3a00ec
:102ae000b0c2b30080cf540005003200d0c2b300a2
:102af0008000eb0080cf540005003a000200370050
:102b00008000eb0001003700110020000804e800fd
:102b10000000eb00030037006a02b9000200520017
:102b20000003b0003801fb0003fd2f00828141004b
:102b3000e98f5100f8ff36000100e00001003a0083
:102b40000000ea004f0578004f04be0000000600b8
:102b50000101780080017800008268000408a30069
:102b600005003200130037003240780080597800a9
:102b70000004e00014003200030278000208a30001
:102b8000f9ff3a00030078000100370003187800cd
:102b900082007800b2017800f5ef2f0083824200b6
:102ba0000382ea0004826200050828000502620030
:102bb000f6ff3200000278003141780002587800b8
:102bc0000204e000fbff3a00040078000000060069
:102bd00080007800040037003104e00002003a0071
:102be0000000510000000600010178000108a30068
:102bf000f9ff3a008101780031017800f4ef2f00ed
:102c0000020242000281ea00020162000408280078
:102c100004016100f7ff32008300780001017800b1
:102c20003104e000fdff3a00000051000000060002
:102c3000f1fb2f0080804000f98f500001003e0022
:102c40000050a00000000600f9ff3700f1f92f0046
:102c500080804000f98f500001003e00f005b20076
:102c600000000600f9ff37000200fa00881f780014
:102c700000047800e2bf9f006481570008007800dc
:102c800063ff0700980090000148a3000100320094
:102c90000080eb004f0478000080fa00000006007e
:102ca000881f78000004780000082000808f500002
:102cb0001700350010082000808f50000b003400f2
:102cc00030082000808f500011003a0092007800f8
:102cd00068805000000978003002be002003be006a
:102ce000049cbe000694be000700370092027800e4
:102cf00064805200000978001000be000700070041
:102d0000009cbe000294be001000200001003700ad
:102d10000000eb004f0478000000060081037800fb
:102d20006ef607000001be006000b8000478a30042
:102d300013003a006220e10015003e000d0039004a
:102d40008301d1000281d3008180d3008301d100af
:102d50000281d3008180d3008301d1000281d3009e
:102d60008180d3000538b000c42add00f300b20032
:102d70008381720007f0a70003f0a00000000600a6
:102d800083ff2700020020006110b900f9ff37001f
:102d900003ff2700f7ff3700020ab900001bb90044
:102da0000200b800810042008100430000000600dc
:102db000889fbe008a9fbe0030044200b0844a0053
:102dc00030054b0090854b006000b1000898be00b4
:102dd0000a90be000440e10005c8e10006d0e10011
:102de00007d8e10002003100680040001008e80048
:102df0004f05be004f04be0000000600889fbe00c5
:102e00008a9fbe003004be002005be000418540096
:102e100005985c0006185d0007985d001100200011
:102e20000440e10005c8e10006d0e10007d8e10058
:102e3000010039008000eb00108810004f05be0033
:102e40004f04be00000006001200fa00889fbe007a
:102e50008a9fbe008c9fbe00e0b79f00f1b79f0025
:102e600082bf9f0093bf9f000605be000404be0002
:102e70000000eb00d0b79f00c0b79f00b0b79f0025
:102e8000a0b79f0090b79f00000678005fb1970041
:102e9000cfb09700820141003fb097000200e000f0
:102ea00004003d00370007007e805700c0ff070088
:102eb00003003700330007007e805700cfff070074
:102ec000dfb697000d00e0000c0035006fb29700f0
:102ed000ffb297000fbb97009fbb97001000200028
:102ee000010020006011b8000002720081827200af
:102ef00002037300838373001b0007000c06e800c5
:102f000001042000810f5600e0ff3a000d00e000b0
:102f100004003d000802be000a03be007e80570088
:102f2000a3ff07005fa897000000e00005003a003b
:102f30001fb29700afb297003fb39700cfb397008f
:102f4000090007006fb09700ffb097000fb9970016
:102f50009fb997004f06be004f05be004f04be004c
:102f60000080fa00000006000100070000000600d3
:102f7000a4b79f00b5b79f00c6b79f00d7b79f0003
:102f8000000006004f09de0082817100b3b79f0088
:102f90004f01de008180400082807000a1b79f0059
:102fa0008fb097004f09de00000040000200700063
:102fb00090b79f007fa897004f01de0081804000fe
:102fc0008280700081b79f000d0007004f3ade003d
:102fd0000000400004007000f0af9f0008000700f0
:102fe0000402420085824a0006034b0087834b009f
:102ff000dfff07000802be000a03be000000060053
:103000002fb29700bfb297004fb39700dfb397007e
:1030100000000600881f780018002000881f780034
:1030200089ff07008f87e9004f0478000000060041
:10303000801feb0084ff07008f87e9000000060077
:10304000889fbe008a9fbe00e00f5000e08f5800ae
:10305000e00f5900e08f59000c003d006044b800bb
:103060006055b8000000540081805c0002015d00e2
:1030700083815d00180020001500070008003d0056
:10308000180007000004eb00050037000004eb0007
:103090000f00070002003d0012000700180020008a
:1030a000dcff07000800e000060032006022b800e4
:1030b0006033b8000000520081805a0002015b00ba
:1030c00083815b004f05be004f04be000000060078
:1030d000e00f5200e08f5a00e00f5b00e08f5b00d2
:1030e000000006006044b8006055b80004025400b7
:1030f00085825c0006035d0087835d00000006009a
:10310000889fbe008a9fbe008c1f7800e00f500091
:10311000e08f5800e00f5900e08f59000d003d008e
:103120006044b8006055b8000000540081805c0025
:1031300002015d0083815d001c0020000820e10089
:1031400009a8e1000ab0e1000bb8e1000d003d0064
:10315000080037000006eb00e00f5200e08f5a0035
:10316000e00f5b00e08f5b0006003d006044b800ac
:103170006055b8000402540085825c0006035d00bf
:1031800087835d00aaff07000c00e0000600320004
:103190006022b8006033b8000000520081805a00fd
:1031a00002015b0083815b004f0678004f05be0083
:0831b0004f04be000000060000
:020000040000fa
:1031b8000d0a0000000d00000a2100002120000077
:1031c800414c0000415200004d4500003a200000eb
:1031d800746500006d700000657200006174000085
:1031e80075720000612000006372000069740000bd
:1031f8006963000061200000212100000d0a000021
:10320800002d0000256400002e250000302a000053
:1032180064000000256400002e250000302a00000c
:103228006400000011110000222200003333000066
:10323800444400005555000066660000777700009a
:103248008888000099990000aaaa0000bbbb00006a
:10325800cccc0000dddd0000eeee0000cecd00009d
:10326800acab0000414400004300000043540000a0
:10327800524c00000055000041520000540000006c
:10328800414c0000415200004d0000004154000034
:1032980055410000444f00005200000004000000a7
:1032a800494400004c45000000000000546d000037
:0c32b8007220000053760000630000004c
:020000040000fa
:1032c4001400fa002007980031079800420798007c
:1032d400530798006407980075079800060f980034
:1032e400170f98007e0090000000e00008003a00ec
:1032f40011028000f0f12f00008060000050a00057
:10330400100288000000000000000000ffff3700ea
:103314000e0890000000e00008003a00110280004e
:10332400f0f12f00008060000050a000100288001f
:103334000000000000000000ffff370060032000d1
:10334400100798009e00900060032000808f5000ba
:103354000800320011028000f0f12f0000806000ac
:103364000050a000100288000000000000000000cf
:10337400ffff37001e0090000e0890000000e000e0
:10338400190032007e0090000000e00016003200b8
:103394008e089000010f7800620320008000eb008b
:1033a4001e007800d2f807001e007800fe0090008e
:1033b400410898001e00780021c0b30051709800a5
:1033c4008003eb001e0378009e0a90006e029000ba
:1033d400de0190004e019000be0090002e0090008f
:1033e40070000700020037000000eb00000f7800b7
:1033f4001e0078000080fa00000006001200fa00a7
:103404002007980031079800420798005307980056
:103414006407980075079800060f98000000eb00f9
:10342400100798000e80e800800378000e0b9000cf
:10343400fe0290006e029000de0190004e019000aa
:10344400be0090002e0090009dff0700000f780042
:103454001e0078000000e000020032001e00780028
:10346400c40007001e0090000080fa00000006005f
:103474000e00fa0010079800210798003207980000
:1034840043079800540798006507980060032000dc
:1034940004280700000f78001e0078000000e000f8
:1034a40012003200620320008000eb001e0078004e
:1034b4008ff807003e00900000004000f927070045
:1034c400800078001e007800410898001e007800f3
:1034d400400890000000e00004003a001e0078005c
:1034e400272807000000eb00000f78001e0078007a
:1034f4000000e0000c0032001e0078008040eb0069
:10350400517098008003eb001e037800ee029000d7
:103514005e029000ce0190003e019000ae0090004b
:103524001e0090001f0007001e0078000080fa00b3
:10353400000006001000fa002007980031079800e8
:10354400420798005307980064079800750798008d
:10355400fe0290006e029000de0190004e01900089
:10356400be0090002e009000c1ff070010079800d5
:103574001e0090000000e000050032001e009000d4
:103584007c00070010002000000f780002003700c4
:103594000080eb00000f78001e0078000080fa0025
:1035a400000006001400fa00200798003107980074
:1035b400420798005307980064079800750798001d
:1035c400060f9800170f98000e089000c00890008e
:1035d400110798001e0090000000e8000000a10000
:1035e400100798001e009000610060000000e000d9
:1035f4000800320011028000f0f12f00008060000a
:103604000050a0001002880000000000000000002c
:10361400ffff37000e089000c00890004e00900095
:103624000000e90000004000808040000e08900087
:10363400511098003e0090000000e0001800320095
:103644000000eb00000f78000d0037003e009000f2
:103654001e004000904078000e0890001e004000bc
:103664007a004000014878003e0090001e004000af
:10367400104078000004e000050032001e0fe8004e
:103684001e007800ef0f5000f0ff360001003700f5
:10369400000000000e0890008040eb0011689800c4
:1036a4006e009000e40f5000080036001102800004
:1036b400f0f12f00008060000050a000100288008c
:1036c4000000000000000000ffff37006e009000c3
:1036d400e40f50000200360040002000600798000c
:1036e4000e089000ee009000310898000e0890003b
:1036f400ee009000611098000e0890000080e80031
:10370400762607000e0890006c0040007326070020
:103714000e0890008e089000410098006e00900002
:10372400e50010000e089000610098000e0890005b
:103734008e089000110898005e019000ae00900081
:103744001e009000a4250700800078000e08900059
:10375400010878007e0090000000e00003003200c1
:103764007e0090008e089000010878000080fa0026
:10377400000006000400fa0010079800182607004d
:10378400404080000000e800404088000040800085
:103794000000e00007003a009e009000014088000d
:1037a40040408000e10f50000d003a00bc080700c3
:1037b4000b003700704080000000e00008003a0071
:1037c40000408000b00890001e0090003008900077
:1037d400808f500002003e009e009000014088004f
:1037e400b04080000000e800b04088001e00900057
:1037f400b008900060408000808f500003003600c5
:103804001e00900030089000604088001e00900068
:10381400300890006a00b90080007800c08321005d
:103824000080400090009000010f78001e0090007e
:103834009e007800210098001e007800a0009000ef
:103844001e009000310098001e00780020009000b7
:103854009e0090008180e800110098001e009000f6
:103864008080e8001e007800210098001e0090006f
:10387400300890006a00b90080007800c0832100fd
:10388400808040001e009000510098001e009000af
:10389400300890006a00b90080007800c0832100dd
:1038a400008140001e009000300890006a00b900ba
:1038b40080007800c0832100008040001000780060
:1038c4000000e80000097800d2250700704080005d
:1038d4000000e0000900320000408000b0089000c1
:1038e4001e00900030089000808f500003003100cb
:1038f4005c6b020000000000000000000080fa0081
:10390400000006000800fa00300798000000eb00f1
:10391400000f7800b22507003e0090000000e00090
:1039240002003a0000408000010037003e00900091
:10393400100798001e0090000080e8003e26070053
:103944001e009000200890000000e00003003200f8
:103954001e0090006c00400037260700b040800035
:103964000000e800b0408800004080009e00900005
:103974000080680000f0a7000000ea000000e900f1
:103984004f00de0020079800704080000000e00037
:103994000e0032002e0090000000e0000b00320008
:1039a4001e0090000080e80080007800c08821009c
:1039b400d1250700304080000000e8003040880036
:1039c40010002000000f7800040037004040800001
:1039d4000000e90040408800860807008d250700a4
:1039e4001e007800e10f5000020032001e0090001b
:1039f4005f080700704080000000e0001200320001
:103a0400004080009e009000808f50000e003a001d
:103a1400e04080000000e000080032001102800055
:103a2400f0f12f00008060000050a0001002880018
:103a34000000000000000000ffff37005c6b020084
:103a440000000000000000000080fa0000000600f2
:103a54000c00fa0040079800510798000000eb00a2
:103a6400000f78004e0090000000e00008003a00cb
:103a740011028000f0f12f00008060000050a000cf
:103a8400100288000000000000000000ffff370063
:103a94005e0090000000e00008003a00110280007f
:103aa400f0f12f00008060000050a0001002880098
:103ab4000000000000000000ffff37003203070091
:103ac4005140800011079800e0408000e10f500051
:103ad4000800320011028000f0f12f000080600025
:103ae4000050a00010028800000000000000000048
:103af400ffff37004e009000900078005e009000b9
:103b040000804000200798004e009000900078004c
:103b14001e009000808f50000c0036004e00900074
:103b2400900078002e009000808f50001200360024
:103b3400ae0090001e009000808f50000e003600f2
:103b440010002000000f78000b0037004e0090009a
:103b5400900078002e009000808f500004003e00fa
:103b6400ae0090001e009000808f500002003600ce
:103b740010002000000f78004e009000ae0090006e
:103b8400010878001e0078000000e0000500320003
:103b9400ae0090001e009000008050008000eb00fa
:103ba4001a0e0700fe020700300798003e0090003e
:103bb4000000e00003003a005c6b0200000000001b
:103bc400000000001e0078000080fa0000000600db
:103bd4000400fa00100798000000eb00000f7800c2
:103be4001e0090000000e00011003200e602070011
:103bf400e0408000e10f5000080032001102800014
:103c0400f0f12f00008060000050a0001002880036
:103c14000000000000000000ffff37008000eb0000
:103c24001e009000f90d0700dd020700000f780068
:103c34001e0078000000e00003003a005c6b020004
:103c440000000000000000000080fa0000000600f0
:103c54000600fa0020079800e12407002e009000d7
:103c64000000e00002003a0000408000010037003c
:103c74002e009000000f78001e007800b00890001d
:103c840011079800e32407001e0090000080fa004a
:103c9400000006000800fa00300798000000eb005e
:103ca400000f78003e0090000000e00002003a009f
:103cb40000408000010037003e009000100798008b
:103cc4001e009000b0089000210798002e0090007c
:103cd4000080fa00000006000600fa0020079800a1
:103ce400bf2407002e0090000000e00002003a000c
:103cf40000408000010037002e009000000f780083
:103d04001e007800e010900011079800c1240700fd
:103d14001e0090000080fa00000006000800fa006f
:103d2400300798000000eb00000f78003e00900080
:103d34000000e00002003a0000408000010037006b
:103d44003e009000100798001e009000e0109000c4
:103d5400210798002e0090000080fa000000060061
:103d64000e00fa0050079800610798000000eb006d
:103d7400000f78006e009000e40f50000800360039
:103d840011028000f0f12f00008060000050a000bc
:103d9400100288000000000000000000ffff370050
:103da4006e009000e40f5000020036004000200036
:103db400600798008a2407005e0090000000e0007d
:103dc40002003a0000408000010037005e009000cd
:103dd400100798001e009000e01090002107980042
:103de400ae0090006e009000808f50007b00320087
:103df400ee0090002e009000808f50000c003600e2
:103e0400004080009e009000808f50000e00320021
:103e140000408000b00890006e009000808f500039
:103e24000900310010002000000f78000600370060
:103e3400004080009e009000808f500002003a00f5
:103e440010002000000f78001e009000b0089000c1
:103e5400310798001e009000e01090001e009000b2
:103e640030089000808f5000050032001e00900042
:103e7400b00890006e009000808f50000300310065
:103e84001e009000ee009000310898001e00900083
:103e9400ee009000611098001e00900060009000f9
:103ea4000000e000040035006e009000e500100002
:103eb4001e009000610098001e00900050019000c8
:103ec4003e0090006a00b90080007800c0832100a1
:103ed40000804000800f51003a003a001e0090001c
:103ee4000080e800d42407001e009000b008900071
:103ef40060408000808f5000030036001e00900058
:103f040030089000604088001e0090003008900047
:103f14006a00b90080007800c0832100008040005e
:103f240090009000410798001e009000ce00900081
:103f3400210098004e009000a00090001e00900008
:103f4400310098004e009000200090009e009000e8
:103f54008180e800110098001e0090008080e80035
:103f64004e009000210098001e0090003008900040
:103f74006a00b90080007800c0832100808040007e
:103f84001e009000510098001e0090003008900020
:103f94006a00b90080007800c083210000814000dd
:103fa4001e009000300890006a00b900800078007c
:103fb400c083210000804000100078000000e80069
:103fc400000978001e0078000000e00003003200c1
:103fd4005c6b020000000000000000000d240700dc
:103fe4000080fa00000006000800fa00300798007c
:103ff400fb2307003e0090000000e00002003a00ae
:1040040000408000010037003e0090001007980037
:104014001e0090000080e800872407001e00900026
:10402400200890000000e000030032001e00900011
:104034006c004000802407001e0090000080e8000f
:1040440080007800608921002b2407000000eb0029
:10405400000f78000c0037009e00900042032000ff
:104064001e00410061407800e14f500005003a0015
:104074001e0090001e0040004003b0008040eb0092
:10408400014878001e0fe8001e0078000000e000e0
:10409400f1ff3400df230700704080000000e000df
:1040a40003003200ce230700d2060700d9230700fd
:1040b400004080009e009000808f50001b003a005a
:1040c400704080000000e0000f003200e0408000fb
:1040d4000000e0000800320011028000f0f12f001f
:1040e400008060000050a000100288000000000062
:1040f40000000000ffff37005c6b020000000000be
:104104000000000009003700b1c4800021079800b6
:1041140040408000ae009000808f500002003a00c2
:104124000028ef0001003700c50307000080fa00f3
:10413400000006000800fa00300798000000eb00b9
:10414400000f7800be009000210798003e00900008
:104154000000e00008003a0011028000f0f12f0096
:10416400008060000050a0001002880000000000e1
:1041740000000000ffff37002e009000d0009000e8
:1041840060892100808f50001d003a002e009000ad
:10419400a008900020882100808f50001800320071
:1041a4002e009000200890000000e00014003a0067
:1041b40010002000000f78000000eb0010079800aa
:1041c4000c003700ae0090001e0090004003b000c9
:1041d40061407800e14f500003003a000000eb001a
:1041e400000f7800060037001e0090000000e80071
:1041f400100798001e0090000000e000f1ff34005a
:104204001e0078000080fa00000006000600fa0094
:1042140020079800ae009000010f78002e00900057
:104224000000e00008003a0011028000f0f12f00c5
:10423400008060000050a000100288000000000010
:1042440000000000ffff3700004080009e0078005f
:10425400808f5000490032001e0078000000e0000a
:10426400460032005e2307001e007800b1ff0700fd
:104274000000e000400032001e80e800ee2307004a
:104284001e007800b008900060408000808f5000cd
:10429400030036001e00780030089000604088005b
:1042a4001e007800300890006a00b9008000780091
:1042b400c083210000804000900090001107980006
:1042c4001e0078009e009000210098001e009000bf
:1042d400a00090001e007800310098001e0090009d
:1042e400200090009e80e800110098009e80e80065
:1042f4001e009000210098001e00780030089000f5
:104304006a00b90080007800c083210080804000ea
:104314001e007800510098001e00780030089000bc
:104324006a00b90080007800c08321000081400049
:104334001e007800300890006a00b9008000780000
:10434400c083210000804000100078000000e800d5
:104354000009780000408000b00890001e0078003a
:1043640030089000808f5000030031005c6b020025
:104374000000000000000000262307000080fa006f
:10438400000006000a00fa00400798000000eb0055
:10439400000f7800ce009000110798004e009000a6
:1043a4000000e00008003a0011028000f0f12f0044
:1043b400008060000050a00010028800000000008f
:1043c40000000000ffff37000000eb00200798000a
:1043d4001e00900057ff07000000e0004d0032006f
:1043e400e04080000000e00045003a001e0090001c
:1043f400b00890000040800030089000808f50008a
:104404000400360010002000000f78001000200087
:10441400904088001e0090000080e800862307007a
:104424001e009000b008900060408000808f500013
:10443400030036001e0090003008900060408800a1
:104444001e009000300890006a00b90080007800d7
:10445400c083210000804000900090003107980044
:104464001e009000be009000210098003e009000c5
:10447400a00090001e009000310098003e009000c3
:10448400200090009e0090008180e80011009800b8
:104494001e0090008080e8003e00900021009800fb
:1044a4001e009000300890006a00b9008000780077
:1044b400c0832100808040001e00900051009800bd
:1044c4001e009000300890006a00b9008000780057
:1044d400c0832100008140001e009000300890003d
:1044e4006a00b90080007800c08321000080400089
:1044f400100078000000e80000097800050037008b
:104504001e0090006c00400080007800208821008c
:10451400f92207001e0078000080fa00000006005f
:104524001e00fa0010002000000f78000000eb00cd
:10453400300798000000eb002007980011003700b6
:10454400419529002e0090000080400090407800a2
:10455400680147002e0090000000410001487800e7
:10456400e80047002e0090000080400010407800d2
:104574000004e000070032002e0090000000e80074
:10458400200798002e009000ef0f5000ecff34003d
:1045940001003700000000000000eb001007980045
:1045a4002e003700a0d32200300798000000eb0053
:1045b400400f98000000eb00500f98007c0147006a
:1045c400fa00470078004700d70b0700ce09900097
:1045d4005e099000ee08900068004700030378002d
:1045e400820278000002eb008001eb0001017800f8
:1045f400800078003e00900080fb07008000780077
:104604001e00900000014000a08120000000410035
:10461400010878001e00900080004000a081200066
:1046240000804000100078000000e0000300320029
:1046340010002000000f7800020037000000eb009b
:10464400000f78001e0078000000e0000700320030
:104654001e0090000000e800100798001e00900063
:104664000000e000cfff340001003700000000002c
:104674001e0078000080fa00000006000200fa0024
:10468400a7ff0700000f78001e007800e10f50001c
:1046940002003a00621a0700000f78001e0078003a
:1046a400e10f50000e003a0011028000f0f12f00db
:1046b400008060000050a00010028800000000008c
:1046c400000000000080eb00c040880010002000c3
:1046d400704088000a28ef00072207000b0037000b
:1046e4001e007800e10f400008003a00110280002b
:1046f400f0f12f00008060000050a000100288003c
:104704000000000000000000ffff370090ca840092
:104714000080fa00000006000200fa00551b0700a2
:1047240078fc07000000eb00000f7800070037005a
:104734001e00780080004000a0812000008040001e
:10474400100078006ffc07001e0fe8001e007800c0
:104754000000e000f6ff3400ef04070011028000bf
:10476400f0f12f00008060000050a00010028800cb
:1047740000000000000000000e28ef00f5210700f3
:104784000080fa00000006000000fa00e04080000b
:104794000000e800e04088000080fa000000060005
:1047a4000e00fa000000eb00000f78000000eb00a0
:1047b400100798000a2207000000eb003007980059
:1047c400e04080000000e00008003a001102800090
:1047d400f0f12f00008060000050a000100288005b
:1047e4000000000000000000ffff3700e0408000f0
:1047f4000000e900e0408800e04080000000e000a4
:10480400ae003a00404080000000e000ab003200ff
:104814008100370040c4800030009000000f780011
:104824001e007800a0089000410798001e00780040
:10483400700090009e00780081089000210098008c
:104844001e007800000890009e007800f10090009f
:10485400110098004e009000900090001e01780016
:104864006c004100808f500004003a001e00780064
:10487400800890004e009000110098001e007800ff
:104884008000eb00210898004e0090001000780092
:104894008000e9004e009000010878001e007800b6
:1048a400d0009000510798001e007800200090006e
:1048b4009e007800b1009000210098001e0078004e
:1048c400300090009e007800a10090001100980034
:1048d4005e009000900090001e80e800808f5000e1
:1048e40004003a001e007800b00090005e009000c2
:1048f400110098001e0078008000eb005100980021
:104904005e009000100078008000e9005e009000d6
:10491400010878001e007800b00890006040800014
:10492400808f5000030036001e007800300890008d
:10493400604088001e007800300890006a00b900ca
:1049440080007800c08321000080400010019000a6
:10495400620798001e007800ee0090002100980085
:104964006e009000a00090001e00780031009800b6
:104974006e009000200090009e80e80011009800d6
:104984009e80e8006e009000210098001e007800d0
:10499400300890006a00b90080007800c0832100cc
:1049a400808040001e007800510098001e007800ae
:1049b400300890006a00b90080007800c0832100ac
:1049c400008140001e007800300890006a00b900a1
:1049d40080007800c083210000804000100078002f
:1049e4000000e800000978001e007800b00890007c
:1049f4000040800030089000808f50000600360090
:104a04003e00900080004000208120000080400093
:104a1400110020000108780010c480000000e000ac
:104a24007cff3a001e0078000000e0000100320024
:104a34007004070082408000220798002e00900036
:104a44000000e00010003200a50007000000e000b4
:104a5400060032003e0090008000400020812000cb
:104a64000080400011002000010878002e00900012
:104a74000000e900200798002e0090000000e000ec
:104a8400f1ff3a001028ef003e0090008000400043
:104a94002081200000804000100078000000e00029
:104aa400060032001000200010079800004080002b
:104ab4005c6b0200000000000000000055210700ac
:104ac4001e0090000080fa00000006000200fa00b8
:104ad40051408000010f78001e0078000080fa0029
:104ae400000006000400fa000000eb00000f78004c
:104af40051408000110798001e0090000080fa00c9
:104b0400000006000000fa00404080000080fa0027
:104b1400000006000400fa00100798001e00900030
:104b24000000e00002003a0000408000010037006d
:104b34001e009000000f78001e0078000000e000c6
:104b440008003a0011028000f0f12f00008060009c
:104b54000050a000100288000000000000000000c7
:104b6400ffff37009e0078007a8040000080fa0042
:104b7400000006000a00fa00200798003107980098
:104b8400420798003e0090000000e00008003a0050
:104b940011028000f0f12f00008060000050a0009e
:104ba400100288000000000000000000ffff370032
:104bb4004e0090000000e00008003a00110280005e
:104bc400f0f12f00008060000050a0001002880067
:104bd4000000000000000000ffff37002e009000de
:104be4000000e00002003a000040800001003700ad
:104bf4002e009000100798001e0090005070900046
:104c0400e24f50000a003a001e009000c0089000d5
:104c14003e009000010878009e0090004e00900035
:104c24000108780010002000000f78001000370001
:104c34001e00900050709000e14f50000a003a00ae
:104c44001e009000c00890003e009000010878000b
:104c54004e0090008000eb00010878001000200056
:104c6400000f7800020037000000eb00000f78000e
:104c74001e0078000080fa00000006000400fa001c
:104c840010079800e04080000000e00008003200b7
:104c940011028000f0f12f00008060000050a0009d
:104ca400100288000000000000000000ffff370031
:104cb400b5fe0700ca200700814080001e00900056
:104cc4000080400080408800d2200700b4fe070026
:104cd400000f78001e0078000080fa000000060033
:104ce4001000fa000000eb00000f7800e0408000a4
:104cf4000000e000cc003a00504080000000e800d2
:104d0400100798009e009000514088001e009000fb
:104d14000000e00016003a00104080001000780007
:104d24000000e0000800320011028000f0f12f00c2
:104d3400008060000050a000100288000000000005
:104d440000000000ffff3700114080002107980099
:104d54002040800010408800ae0090002140880070
:104d6400a04080000000e800a0408800a1030700e4
:104d7400c04080009e009000808f50009900390050
:104d8400010037000000000010408000100078008f
:104d94000000e00003003a000080eb00c0408800ff
:104da40090003700104080003000900030009000e8
:104db400300798003e009000900090004107980052
:104dc4009e0090004e009000808f50000300310040
:104dd400ce009000c1408800820037003e00900061
:104de400d0009000510798003e00900020009000f1
:104df400be009000b1009000210098003e00900099
:104e040030009000be009000a100900011009800b6
:104e14005e009000900090003e0090000080e8004a
:104e2400808f500004003a003e009000b0009000d3
:104e34005e009000110098003e0090008000eb009e
:104e4400510098005e009000100078008000e90096
:104e54005e009000010878003e0090002008900059
:104e64000000e0001f0032003e009000a008900007
:104e7400610798003e00900070009000be00900012
:104e840081089000210098003e00900000089000e6
:104e9400be009000f1009000110098006e00900098
:104ea400900090003e0090006c004000808f500005
:104eb40004003a003e009000800890006e009000cc
:104ec400110098003e0090008000eb00210898003b
:104ed4006e009000100078008000e9006e009000e1
:104ee400010878003e009000b00890006040800007
:104ef400808f5000030036003e0090003008900080
:104f0400604088003e009000300890006a00b900bc
:104f140080007800c0832100008040009000900051
:104f2400710798003e009000fe0090002100980058
:104f34007e009000a00090003e0090003100980098
:104f44007e00900020009000be0090008180e80068
:104f5400110098003e0090008080e8007e009000e0
:104f6400210098003e009000300890006a00b900cb
:104f740080007800c0832100808040003e009000c3
:104f8400510098003e009000300890006a00b9007b
:104f940080007800c0832100008140003e00900022
:104fa400300890006a00b90080007800c0832100b6
:104fb40000804000100078000000e800000978003c
:104fc4003e009000b008900000408000300890003f
:104fd400808f50006bff360010002000000f780017
:104fe40069ff370000408000300890006a00b90073
:104ff40080007800c0832100008040001000780009
:10500400e10f50000200360010002000000f78006d
:10501400904080000000e0000600320010002000f4
:10502400000f780003003700804080000000e80093
:10503400804088001e0078000080fa00000006000e
:105044000400fa00e04080000000e00003003200a9
:105054001000200090408800340037001228ef0030
:1050640061408000010f78000c0037001e007800ba
:105074000000e00008003a0011028000f0f12f0067
:10508400008060000050a0001002880000000000b2
:1050940000000000ffff37001e0fe9001e0078002b
:1050a4006a00b90080007800c083210000804000bd
:1050b400100078000000e000ecff32001e007800d1
:1050c4006a00b90080007800c0832100008040009d
:1050d400100798001e0090001000900090009000af
:1050e4001e009000110098001e0090009000900097
:1050f4001e00900064004000808f500004003a00bd
:105104001e009000b00090001e0090001100980056
:105114001e009000100090003000900000408800b5
:105124009e00780061408800004080000080fa0002
:10513400000006000400fa00000f78001107980030
:105144001e0078000000e00008003a001102800010
:10515400f0f12f00008060000050a00010028800d1
:105164000000000000000000ffff37000040800046
:105174006c004000800078001e007800fc1f0700cf
:10518400110020001e009000a00807000080fa0013
:10519400000006000800fa00100798002107980094
:1051a400320798001e0090000000e00008003a005a
:1051b40011028000f0f12f00008060000050a00078
:1051c400100288000000000000000000ffff37000c
:1051d400e04080000000e00008003a001102800076
:1051e400f0f12f00008060000050a0001002880041
:1051f4000000000000000000ffff370000408000b6
:10520400ae00900001f0a000610098001e00900024
:1052140090009000010f7800004080009e0078000c
:1052240071009800004080009e007800a10090006a
:10523400010898001e0078002000900001408000c2
:10524400ec8040001100980000408000ec00400019
:105254001e00780021009800004080009e0090000d
:10526400210898001e009000100078008000e800db
:105274001e00900001087800110020003e009000fc
:10528400620807000080fa00000006000800fa0027
:105294001007980021079800320798001e0090001c
:1052a4000000e00008003a0011028000f0f12f0035
:1052b400008060000050a000100288000000000080
:1052c40000000000ffff37001e00900090009000d7
:1052d400010f7800004080009e0078007100980063
:1052e400004080009e007800a10090000108980012
:1052f4001e0078002000900001408000ec804000f7
:105304001100980000408000ec0040001e0078006e
:1053140021009800004080009e0090002108980021
:105324001e009000100078008000e8001e0090002d
:10533400010878003e0090000000e0000200320006
:105344000080eb0020079800be0090002e00900023
:105354002e0807000080fa00000006000e00fa0084
:10536400600798006e0090003000900030009000bc
:10537400100798001e0090000000e00008003a00aa
:1053840011028000f0f12f00008060000050a000a6
:10539400100288000000000000000000ffff37003a
:1053a4001e009000a0089000210798001e009000a5
:1053b400700090009e0090008108900021009800e9
:1053c4001e009000000890009e009000f1009000e4
:1053d400110098002e009000900090001e00900094
:1053e4006c004000808f500004003a001e009000c2
:1053f400800890002e009000110098001e0090007c
:105404008000eb00210898002e0090001000780026
:105414008000e9002e00900001087800e040800040
:105424000000e00057003a001e009000d0009000f9
:10543400310798001e009000200090009e0090000c
:10544400b1009000210098001e00900030009000f0
:105454009e009000a1009000110098003e00900072
:10546400900090001e0090000080e800808f5000a3
:1054740004003a001e009000b00090003e0090002e
:10548400110098001e0090008000eb00510098006d
:105494003e009000100078008000e9003e0090007b
:1054a400010878001e009000b00890006040800061
:1054b400808f5000030036001e00900030089000da
:1054c400604088001e009000300890006a00b90017
:1054d40080007800c083210000804000900090008c
:1054e400410798001e009000ce0090002100980013
:1054f4004e009000a00090001e0090003100980023
:105504004e009000200090009e0090008180e800f2
:10551400110098001e0090008080e8004e0090006a
:10552400210098001e009000300890006a00b90025
:1055340080007800c0832100808040001e0090001d
:10554400510098001e009000300890006a00b900d5
:1055540080007800c0832100008140001e0090007c
:10556400300890006a00b90080007800c0832100f0
:1055740000804000100078000000e8000009780076
:105584001800370021c48000510798001e009000c5
:10559400de009000710098005e009000a000900072
:1055a4001e009000010898005e009000200090000a
:1055b4009e009000ec804000110098001e009000b6
:1055c400ec0040005e009000210098001e00900056
:1055d400218821002108980010c480000000e80000
:1055e40010c488001e009000b008900000408000a5
:1055f40030089000808f5000050036001000200015
:10560400000f78001000200090408800020037004e
:105614000000eb00000f78001e0078000080fa0004
:10562400000006000c00fa0040079800510798009b
:10563400e04080000000e00008003a001102800011
:10564400f0f12f00008060000050a00010028800dc
:105654000000000000000000ffff37005e00900023
:105664008000780001f0a0004e009000010878004e
:105674004e00900030009000000f78001e0078006b
:105684000000e00008003a0011028000f0f12f0051
:10569400008060000050a00010028800000000009c
:1056a40000000000ffff37004e009000c000900093
:1056b400110798004e00900010009000ce0090005a
:1056c400a1009000210098004e009000200090005e
:1056d400ce00900091009000110098001e009000f0
:1056e400900090004e009000808f500004003a001b
